:020000040800F2
:1000000000500020613F00080D3B00080F3B000836
:10001000113B0008133B0008153B000800000000DE
:10002000000000000000000000000000C12D0008DA
:10003000173B000800000000512E0008952E000814
:10004000A93F0008A93F0008A93F0008A93F0008F0
:10005000A93F0008A93F0008A93F0008A93F0008E0
:10006000A93F0008A93F0008A93F0008A93F0008D0
:10007000A93F0008A93F0008A93F0008A93F0008C0
:10008000A93F0008A93F0008A93F0008A93F0008B0
:10009000193B0008A93F0008A93F0008A93F000834
:1000A000A93F0008253B0008A93F0008A93F000818
:1000B000A93F0008A93F0008A93F0008A93F000880
:1000C000A93F0008A93F0008A93F0008A93F000870
:1000D000A93F0008A93F0008A93F0008A93F000860
:1000E000A93F0008A93F0008A93F00080000000040
:1000F0000000000000000000000000000000000000
:0C01000000000000000000005FF808F1A3
:1001100010B5054C237833B9044B13B10448AFF341
:1001200000800123237010BD7C010020000000002E
:100130000440000808B5034B1BB103490348AFF363
:10014000008008BD0000000080010020044000087D
:10015000074A08B51368032043F01003136000F04A
:10016000D9F9002003F096FC03F06CFC002008BDD8
:1001700000200240034A044B11681B780B441360B3
:10018000704700BF741C002000000020014B18685D
:10019000704700BF741C002038B50446FFF7F6FF17
:1001A0000546631C1EBF044B1B78E418FFF7EEFFE7
:1001B000401B8442FAD838BD00000020002373B5EC
:1001C000514A01930368044693420D4608D002F554
:1001D0008062934204D040F2AA614C4803F031FCA3
:1001E0002B68112B04D940F2AB61484803F029FC7D
:1001F0006B68013B0F2B04D940F2AC61434803F01C
:1002000020FCAB68072B04D940F2AD613F4803F0F6
:1002100018FC94F82430012B73D00123686884F80B
:1002200024300628226829684FEA800324D8034432
:100230001F20566B053B984026EA000001FA03F3A5
:10024000034353630929AD684FEA41032ED90726BA
:100250000B44D0681E3B9E4020EA060005FA03F3DB
:100260000343D360A1F11003012B2AD900200023FE
:1002700084F8243002B070BD0C280BD803441F2032
:10028000166B233B984026EA000001FA03F3034370
:100290001363D7E703441F20D66A413B984026EA00
:1002A000000001FA03F30343D362CBE7072610698A
:1002B0000B449E4020EA060005FA03F30343136152
:1002C000D0E7114B9A4216D193681B02CED49368A3
:1002D000102943F400039360C8D10D4B0D4A1B68ED
:1002E000B3FBF2F20A2353430193019B002BBDD0D1
:1002F000019B013BF8E7A36A012043F02003A362BE
:10030000B5E70220B6E700BF002401409040000896
:100310001801002040420F0038B5036804469A686F
:10032000D20701D4002038BD9A6822F001029A60F9
:10033000FFF72CFF054623689B68DB07F2D5FFF724
:1003400025FF401B0228F6D9A36A012043F01003C1
:10035000A362E36A43F00103E36238BD70B504466B
:10036000002800F0C9800368664A934208D002F56D
:100370008062934204D04FF4C171634803F061FB83
:10038000636833F4006304D040F283115E4803F0E5
:1003900058FBA36833F4807304D04FF4C2715A48F9
:1003A00003F04FFBE368012B04D940F28511564856
:1003B00003F047FBE36933F420220CD023F400223E
:1003C000B2F5C02F07D0B3F5402F04D04FF4C3715E
:1003D0004D4803F036FBA368DBB12369013B0F2BCB
:1003E00004D94FF4C571484803F02BFB6369012B16
:1003F00004D940F28B11444803F023FB636943B1F5
:10040000A369013B072B04D94FF4C7713E4803F0A1
:1004100018FBA36A2BB9E36284F82430204603F06A
:10042000CDF92046FFF778FFA36A13F0100FA36AF7
:1004300064D1002862D1E16923F48853626823F013
:10044000020343F002030A43A168A362E368B1F523
:10045000807F42EA430238D0012914BF06464FF498
:1004600080766569012D07D1002B30D1A369013B4E
:1004700046EA433545F400662368B1F5807F5D6840
:1004800025F4694545EA06055D609E681F4D05EA4D
:10049000060545EA02059D6001D0012920D12169A8
:1004A00001390905DD6A25F470052943D962996887
:1004B000174B0B409A4215D10023E362A36A23F045
:1004C000030343F00103A36270BD0E46C9E7A36AAC
:1004D00043F02003A362E36A43F00103E362CBE746
:1004E0000021DFE7A36A23F0120343F01003A362A5
:1004F000E36A43F00103E362012070BD43F010039F
:10050000A362F9E70024014090400008FDF7E1FFF5
:10051000FE0E1FFFC31E042B10B5044603D9A221F3
:10052000094803F08EFA094A2402D36804F4E0640F
:1005300023F4E0631B041B0C43F0BF6343F400335C
:100540001C43D46010BD00BFC840000800ED00E0AF
:100550000F2A70B504460E46154603D9BA211A482B
:1005600003F06FFA0F2E03D9BB21174803F069FA85
:10057000164B0120D968C1F30221C1F107030A1DFE
:10058000042B28BF0423062A94BF0021033900FA54
:1005900003F2013A8840324001388A400540002C7D
:1005A00042EA05024FEA0212AFBF04F16044084B71
:1005B00004F00F04D2B2A5BFD2B204F561441A55BB
:1005C00084F8002370BD00BFC840000800ED00E0C3
:1005D00014ED00E010B5041E03DACE21064803F046
:1005E00030FA0123620904F01F0403FA04F4034BF8
:1005F00043F8224010BD00BFC840000800E100E001
:100600002DE9F04FAA4A85B0904204468B460192EC
:1006100013D002F5806290420FD002F580629042C2
:100620000BD002F58062904207D002F580629042C2
:1006300003D0CD219F4803F004FADBF8002091B2EB
:1006400011B1120C12041AB1CE219A4803F0F9F933
:10065000DBF80420032A17D9A2F11101012913D9CB
:10066000954822F4001181420ED000F5801082429C
:100670000AD0A0F57020814206D090498A4203D06A
:10068000CF218C4803F0DDF90025A846DFF844A20D
:100690008B4E0122DBF8007002FA08F909EA07071D
:1006A000B94540F08F80019B9C4211D085498C4216
:1006B0000ED0854B9C420BD001F500618C4207D0D7
:1006C00001F580618C4203D0DD217A4803F0B9F94D
:1006D000DBF80410122900F0D38000F28D8002298B
:1006E00000F0C18077D8002900F09380012900F044
:1006F000AE80FF2F82BF08F1804EAEF1080E4FEAA8
:100700008E014FF00F0E9DBF204622684FEA8801F0
:1007100062680EFA01FC22EA0C0205FA01F188BFB8
:10072000201D11430160DBF80400C3004AD5DAF84C
:10073000182028F0030142F00102CAF81820DAF864
:10074000182001F1804102F00102039201F580318D
:1007500008F0030C019B039A4FEA8C0C8A680EFA8E
:100760000CFE9C4222EA0E0E00F09B80554A9442F9
:1007700000F09980544B9C4200F0978002F5006293
:10078000944214BF0422032202FA0CF242EA0E023F
:100790008A603268C1034CBF3A43BA433260726820
:1007A00083034CBF3A43BA437260B268C1024CBF84
:1007B0003A43BA43B260F26883024CBF174322EA5D
:1007C0000707F76008F10108B8F1100F7FF461AF77
:1007D00005B0BDE8F08F03295FD0112989D1DBF87E
:1007E0000C20013A022A03D9EC21324803F029F9FE
:1007F000DBF80C5004357CE73448814209D01CD822
:10080000A0F58010814204D000F5803081427FF451
:1008100070AFDBF80810022904D940F2071125480F
:1008200003F00FF9DBF80810C9B301290CBFC4F8B5
:100830001090C4F8149008255BE725488142E8D061
:1008400000F580308142E4D0A0F58010DEE7DBF8CF
:100850000C20013A022A03D9E521164803F0F1F8E9
:10086000DBF80C5045E7DBF80C20013A022A03D9EB
:10087000F321104803F0E5F8DBF80C50083538E7B1
:10088000DBF80C20013A022A03D9FA21094803F0C7
:10089000D8F8DBF80C500C352BE7002529E70425A8
:1008A00027E7002270E701226EE702226CE700BF13
:1008B0000008014003410008000011100000221050
:1008C00000040140000C0140001001400000211014
:1008D000000031100010024070B5054616460C4667
:1008E00021B940F2E311084803F0ABF8012E06D914
:1008F0004FF4F271044803F0A4F82C6170BD002E8F
:10090000FBD12404F9E700BF034100082DE9F041C1
:10091000044686B0002869D00268354B9A4203D05D
:100920009F21344803F08DF894F8293403F0FF0236
:1009300023B984F82824204603F06EF925460323C2
:100940006E4655F8100B84F8293401F06BF90FCD81
:100950000FC62B6804F10408336098E80E00206885
:1009600001F050F90021206801F066F900212346CA
:1009700022460126084604F1100582F828109186C7
:1009800001310F2982F8296082F82B009063D0632F
:10099000106402F12002F0D10022174683F82822C9
:1009A0009A8601320F2A83F8297283F82B72C3F8D2
:1009B0003872C3F83C72C3F8407203F12003EDD1E2
:1009C0006E460FCD0FC62B68336098E80E00206886
:1009D00001F034F9012384F82470206884F8293464
:1009E00001F004FC002006B0BDE8F0810120FAE728
:1009F000005C00403C41000890F8283410B5012B01
:100A000004460ED0012180F8281403F030FA206843
:100A100001F0EAFB206801F0FCF8002084F82804CB
:100A200010BD022010BD90F8282410B5012A0446FC
:100A30000BD0012280F8282484F82410006801F0EB
:100A4000CDFB002084F8280410BD022010BD38B56D
:100A5000044648B2002801F07F05B5BF04EB4511FC
:100A600004EB4111283101F50A71C00F0D70487077
:100A7000CB7094F828340A61012B09D00123206837
:100A800084F8283401F0F6F8002084F8280438BDF2
:100A9000022038BD4BB2002B01F07F02B5BF00EB46
:100AA000421100EB4111283101F50A71DB0F10B53D
:100AB0000A704B7090F828340446012B09D00123AA
:100AC00080F82834006801F047FA002084F82804F0
:100AD00010BD022010BD70B5002601F07F014D0150
:100AE000441984F8281205F50A710144C4F83C221F
:100AF000C4F84032C4F8446284F82962006801F006
:100B00008FFB304670BD01F00F0100EB4111B1F8D1
:100B10004402704701F07F0170B54D014419236410
:100B20000026012384F8281005F128010144E2631E
:100B3000666484F82930006801F072FB304670BDAD
:100B40002DE9F3470446006801F052FB000400F170
:100B50009880206801F04CFB41050FD522682046A3
:100B6000B2F8443023F480631B041B0CA2F8443019
:100B700003F089F800212046FFF755FF206801F0B7
:100B800037FB470408D52268B2F8443023F4804389
:100B90001B041B0CA2F84430206801F029FB8604DA
:100BA00008D52268B2F8443023F400531B041B0C10
:100BB000A2F84430206801F01BFBC5041CD5226854
:100BC0002046B2F8403023F004031B041B0CA2F8AB
:100BD0004030B2F8403023F008031B041B0CA2F88D
:100BE000403003F073F82268B2F8443023F48053A5
:100BF0001B041B0CA2F84430206801F0F9FA000530
:100C00001DD52068B0F840309BB243F00803A0F82F
:100C10004030B0F8443023F400631B041B0CA0F8F0
:100C20004430B0F840309BB243F00403A0F84030A9
:100C300001F0DEFAC10402D4204603F037F8206840
:100C400001F0D6FA82050BD522682046B2F844306E
:100C500023F400731B041B0CA2F8443003F00FF8BC
:100C6000206801F0C5FAC30508D52268B2F84430FF
:100C700023F480731B041B0CA2F8443002B0BDE8BF
:100C8000F0870023C84FDFF82483DFF82493ADF802
:100C90000430ADF806302068B0F844309BB2ADF8AF
:100CA00004301B047FF555AFBDF8045015F00F0557
:100CB00040F0AB80BDF80410038811F010019BB226
:100CC00026D13B400380B0F8503094F828209BB2E6
:100CD00003EBC20300EB4300D0F80434E26BC3F330
:100CE000090363641344E363204602F0C1FF94F8F0
:100CF0002430002BCFD0226C002ACCD194F82430A1
:100D0000216843F08003A1F84C3084F82420C2E726
:100D1000ADF80630BDF806301A051FD5B0F85030D2
:100D200094F828229BB203EBC20300EB4303D3F8F1
:100D30000C34B4F82C22C3F30903C4F8443204F28F
:100D40002C4101F06DFB22682046138823F07003CC
:100D50001B051B0D138002F07DFF9CE7BDF80630DC
:100D60001B0498D5038823F070031B051B0D03801B
:100D7000B0F8503094F828229BB203EBC20300EB8A
:100D80004303D3F80C34C3F30903C4F8443263B10A
:100D9000B4F82C22D4F83C1201F042FBD4F83C32D7
:100DA000D4F844221344C4F83C320021204602F017
:100DB00057FF2268D4F83852B2F850103E2D89B24D
:100DC00001F1060102F5806017D9C5F34F13EE0655
:100DD00004BF03F1FF339BB249EA83239BB240F87F
:100DE000113013889BB203EA080383F4405343F4A1
:100DF000004343F0800313804DE7C5F34F03ED0735
:100E000044BF01339BB29B02E8E730F825309BB228
:100E1000ADF80630BDF8063019043FD530F825305E
:100E20004FEA451A23F070031B051B0D20F82530EF
:100E300004EB0A0191F83232002B74D1B0F8503033
:100E400091F828229BB2063303EBC20300EB430365
:100E5000D3F80064C6F3090636B1B1F82C22334644
:100E6000D1F83C1201F0DCFA04EB0A01D1F844326B
:100E7000D1F83C223344C1F84432D1F840323244F4
:100E8000C1F83C2223B1D1F83802864280F0868036
:100E9000A2449AF82812204602F0E2FEBDF806307D
:100EA0001A067FF5F8AE20686E0130F82530A119DA
:100EB0009BB23B4020F8253091F832300235002BB0
:100EC00078D1B0F8503091F828209BB2023303EB70
:100ED000C20300EB4303D3F8003404EB4515C3F31E
:100EE00009036B601BB18A8DC96B01F087F9226819
:100EF0002644B2F8503096F828109BB2023303EB28
:100F0000C10302EB4303D3F80024F36BC2F30902DD
:100F100072641A44336CF2632046002B40F08580E3
:100F200002F0A6FEB7E691F8283230F82320DB0065
:100F300012F4804FB0F8502092B221D00232134404
:100F400000EB4303D3F80064C6F3090636B1334619
:100F5000B1F82E22D1F83C1201F062FA04EB0A0338
:100F600093F82812226832F8213023F0F0031B0591
:100F70001B0D43F4004343F0C00322F8213073E714
:100F80000632134400EB4303D3F80064C6F30906AA
:100F9000002EE3D03346B1F83022DBE791F8281277
:100FA0002046FFF798FD79E70F8FFFFF8FBFFFFF08
:100FB0000080FFFF91F8283030F82320DB0012F08A
:100FC000400FB0F8502092B220D00232134400EB10
:100FD0004303D3F8003404EB4515C3F309036B60F6
:100FE0001BB1CA8DC96B01F009F9A31993F8281038
:100FF000226832F8213023F0F0031B051B0D43F467
:10100000404343F0800322F8213070E70632134456
:1010100000EB4303D3F8003404EB4515C3F3090395
:101020006B60002BE1D00A8EDCE7FFF773FD32E640
:10103000012238B54BB2002B01F07F05B5BF00EBA4
:10104000451100EB4111283101F50A71DB0FEDB2BA
:101050008A700D704B7090F82834044693420ED07D
:1010600080F82824006801F045F825B904F22C41E5
:10107000206801F0C1F8002084F8280438BD02205F
:1010800038BD38B500244BB2002B01F07F02B5BF4C
:1010900000EB421100EB4111283101F50A71DB0F21
:1010A0008C700A704B7090F828340546012B09D0DB
:1010B000012380F82834006801F04EF885F82844B0
:1010C000204638BD022038BD11F0800F1BBF01F053
:1010D0007F0100EB411000EB4110283008BF00F504
:1010E0000A701AB982728380002070470122C3807F
:1010F0001B0C82720381F7E72DE9F341044620B906
:101100004FF4B871A54802F09CFC236833B11A076C
:1011100004D140F27111A14802F093FC2368DB076F
:1011200018D423689F0772D42368190700F1B98087
:1011300023685A0700F1EB80E369022B04D940F2DF
:10114000B921964802F07DFCE269002A40F05E81F8
:10115000002020E0636833F4803207D0B3F5A02F7D
:1011600004D040F277118D4802F06BFC8C4D6B6817
:1011700003F00C03042B07D06B6803F00C03082B5F
:101180000CD16B68DE0309D52B689D03C9D5636854
:10119000002BC6D1012002B0BDE8F0816368B3F531
:1011A000803F10D12B6843F480332B60FEF7EEFFB5
:1011B00006462B689803B4D4FEF7E8FF801B64282A
:1011C000F7D90320E7E79BB92B6823F480332B6022
:1011D0002B6823F480232B60FEF7D8FF06462B688C
:1011E00099039ED5FEF7D2FF801B6428F7D9E8E764
:1011F000B3F5A02F2B6803D143F480232B60D1E7F4
:1012000023F480332B602B6823F48023CDE72369FC
:10121000012B04D940F2AB11604802F012FC636963
:101220001F2B04D94FF4D6715C4802F00AFC5C4DC8
:101230006B6813F00C0F07D06B6803F00C03082BDE
:1012400010D16B68DA030DD42B689B0702D5236994
:10125000012B9FD12B68626923F0F80343EAC20394
:101260002B6061E722694F4B6AB101221A60FEF7D9
:101270008DFF06462B689F07ECD4FEF787FF801B87
:101280000228F7D99DE71A60FEF780FF06462B6813
:1012900098077FF549AFFEF779FF801B0228F6D942
:1012A0008FE7A369012B04D94FF4F6713B4802F094
:1012B000C8FBA2693A4D3C4BDAB101221A60FEF735
:1012C00065FF06466B6A9B070DD54FF4FA52374B04
:1012D0001B68B3FBF2F3019300BF019B5A1E0192FE
:1012E000002BF9D124E7FEF751FF801B0228E9D932
:1012F00067E71A60FEF74AFF06466B6A9F077FF5AD
:1013000017AFFEF743FF801B0228F6D959E7E368C1
:10131000012B06D9052B04D040F21B211F4802F0F7
:1013200090FB1F4DEB69D80024D40127EB6943F0F3
:101330008053EB61EB6903F080530093009B1C4EDC
:101340003368D90518D5E368012B33D12B6A43F0F4
:1013500001032B62FEF71AFF41F2883680462B6AA2
:101360009B074CD5002F3FF4E7AEEB6923F0805389
:10137000EB61E1E60027E2E7336843F48073336012
:10138000FEF704FF80463368DA05DCD4FEF7FEFE84
:10139000A0EB08006428F6D913E700BF74410008E9
:1013A0000010024000004242800442421801002026
:1013B00000700040ABB92B6A41F2883823F001037A
:1013C0002B622B6A23F004032B62FEF7DFFE064636
:1013D0002B6A9807C6D5FEF7D9FE801B4045F7D982
:1013E000EFE6052B2B6A03D143F004032B62ADE734
:1013F00023F001032B622B6A23F00403A9E7FEF715
:10140000C5FEA0EB0800B042A9D9DAE6384D6B68FA
:1014100003F00C03082B3FF4BDAE022A354E57D122
:10142000236A33F4803304D040F2C221324802F000
:1014300008FB636A33F4402223F4802110D0B2F514
:10144000801F0DD0B2F5001F0AD0B1F5401F07D0A4
:10145000B3F5601F04D040F2C321274802F0F1FA2F
:1014600000233360FEF792FE07462B68990129D4CA
:10147000236AB3F5803F0ED1A36833F4003304D060
:1014800040F2D9211C4802F0DCFA6B68A26823F410
:10149000003313436B60236A616A6A680B4322F46A
:1014A000741213436B6001233360FEF76FFE044632
:1014B0002B689A013FF54CAEFEF768FE001B022830
:1014C000F6D97EE6FEF762FEC01B0228CDD978E68B
:1014D00000233360FEF75AFE04462B689B017FF51C
:1014E00037AEFEF753FE001B0228F6D969E600BFAF
:1014F00000100240600042427441000830B5194BB0
:1015000087B002AC03F11005224618685968083309
:1015100003C2AB421446F7D101238DF804300223F5
:1015200011498DF805304B6803F00C02082A17D1D9
:10153000C3F3834206A80244DB0312F8102C0CD537
:101540004B680A48C3F34043504306AA134413F8B8
:10155000143CB0FBF3F007B030BD05485043FAE748
:101560000248F8E71C4000080010024000127A0010
:1015700000093D002DE9F0410E46044620B940F235
:101580002E317F4802F05DFA23681D0704D140F236
:101590002F317B4802F055FA022E04D94FF44C71DA
:1015A000774802F04EFA774A136803F007039E4229
:1015B0003DD82368980747D42368DA0770D4714A66
:1015C000136803F007039E42C0F0B58023686E4D98
:1015D00013F0040F40F0BB8023681B0717D5236965
:1015E00033F480620CD023F40072B2F5A06F07D000
:1015F000B3F5C06F04D04FF46E71614802F021FA68
:101600006B68226923F4605343EAC2036B60FFF7FF
:1016100075FF6B685D4AC3F30313D35CD8405C4B22
:101620001860002002F036FA0020BDE8F08113684F
:1016300023F0070333431360136803F007039E424C
:10164000B7D00120BDE8F0814F4D13F0040F1EBF4D
:101650006A6842F4E0626A60190742BF6B6843F44B
:1016600060536B60A36833F0800212D023F0200235
:10167000902A0ED023F04002A02A0AD023F01002B4
:10168000C02A06D0F02B04D040F256313C4802F07C
:10169000D8F96B68A26823F0F00313436B608BE703
:1016A0006368022B04D940F25D31354802F0C9F974
:1016B0006268354D012A2B681DD113F4003FC0D05C
:1016C0006B6841F2883823F0030313436B60FEF725
:1016D0005DFD63680746012B15D16B6803F00C03B1
:1016E000042B3FF46CAFFEF751FDC01B4045F4D90D
:1016F0000320BDE8F081022A02D113F0007FDEE76B
:1017000013F0020FDBE7022B10D16B6803F00C0320
:10171000082B3FF454AFFEF739FDC01B4045F4D908
:10172000E6E7FEF733FDC01B4045E1D86B6813F0D8
:101730000C0FF6D143E7136823F00703334313601C
:10174000136803F007039E427FF47BAF3EE7E36834
:1017500033F480620CD023F40072B2F5A06F07D08E
:10176000B3F5C06F04D040F2B131054802F069F919
:101770006B68E26823F4E06313436B602CE700BFFF
:10178000744100080020024000100240604200083E
:1017900018010020044B054A5B68C3F3C223D35CE5
:1017A000034A1068D8407047001002407042000899
:1017B0001801002038B50D46044620B94FF4A66143
:1017C000114802F03EF925B940F231510E4802F0BD
:1017D00038F90F2323600D4B5A6802F00302626050
:1017E0005A6802F0F002A2605A6802F4E062E26015
:1017F0005B68DB0803F4E0632361054B1B6803F0BF
:1018000007032B6038BD00BF744100080010024080
:101810000020024003682DE9F34113F0130F054641
:1018200003D17C21454802F00CF92B68D90728D553
:101830006B6833F4407303D08221404802F001F911
:101840003F4CE369DA0044D40127E36943F0805355
:10185000E361E36903F080530193019B394E3368E0
:10186000DB0538D5236A13F4407348D1236A6A68CC
:1018700023F44073134323621FB1E36923F08053C1
:10188000E3612B689B070ED5AB6833F4404303D06C
:10189000C9212A4802F0D5F8294AA968536823F4D7
:1018A00040430B435360286810F0100024D0EB68CD
:1018B00033F4800304D040F22511204802F0C1F82F
:1018C0001F4AE9685368002023F480030B435360E8
:1018D00012E00027C2E7336843F480733360FEF7F9
:1018E00055FC80463368D805BCD4FEF74FFCA0EB0E
:1018F00008006428F6D9032002B0BDE8F0816A68C8
:1019000002F440729342B1D001200F4A236A106062
:10191000002023F4407110602162D907A6D5FEF79C
:1019200035FC41F288380646236A9A079ED4FEF7B2
:101930002DFC801B4045F7D9DDE700BFAC41000816
:101940000010024000700040400442427047000016
:101950000368104A10B5934204460FD0B3F1804F8C
:101960000CD0A2F59432934208D002F580629342E3
:1019700004D040F26111084802F063F823680020A7
:10198000DA6842F00102DA601A6842F001021A6075
:1019900010BD00BF002C0140E741000870477047B0
:1019A00070477047036810B51A69044691070ED551
:1019B000DA6892070BD56FF002021A6101229B6967
:1019C00002779B0777D0FFF7EAFF0023237723688E
:1019D0001A69500710D5DA6851070DD56FF0040267
:1019E0001A6102229B69227713F4407F204668D057
:1019F000FFF7D5FF0023237723681A6912070FD555
:101A0000DA6810070CD56FF008021A610422DB694E
:101A10002277990720465AD0FFF7C1FF002323778A
:101A200023681A69D20610D5DA68D0060DD56FF092
:101A300010021A610822DB69227713F4407F2046E6
:101A40004BD0FFF7ACFF0023237723681A69D10737
:101A500008D5DA68D20705D56FF0010220461A6171
:101A600001F0E4FF23681A69100608D5DA68110648
:101A700005D56FF0800220461A6100F0C2F8236895
:101A80001A69520608D5DA68500605D56FF040028B
:101A900020461A61FFF785FF23681A69910622D54F
:101AA000DA6892061FD56FF020022046BDE810408C
:101AB0001A6100F0A5B8FFF771FF2046FFF770FF2D
:101AC00083E7FFF76BFF2046FFF76AFF92E7FFF718
:101AD00065FF2046FFF764FFA0E7FFF75FFF2046A2
:101AE000FFF75EFFAFE710BD1A4A036890420AD0C5
:101AF000B0F1804F07D0A2F59432904203D002F5A6
:101B00008062904215D14A6823F070031343114A52
:101B100090420AD0B0F1804F07D0A2F594329042A3
:101B200003D002F58062904203D1CA6823F4407367
:101B300013434A6923F08003134303608B68C36235
:101B40000B688362034B984204BF0B690363012354
:101B500043617047002C014010B50446002849D06D
:101B60000368254A93420ED0B3F1804F0BD0A2F503
:101B70009432934207D002F58062934203D0D92178
:101B80001E4801F05EFFA36833F0100209D023F075
:101B90004002202A05D0402B03D0DA21174801F05B
:101BA00050FF236933F4807206D0B3F5007F03D071
:101BB000DB21124801F045FFA36933F0800303D015
:101BC000DC210E4801F03DFF94F83D3003F0FF02A8
:101BD00023B984F83C202046FFF7B8FE0223206892
:101BE00084F83D30211DFFF77FFF0123002084F89A
:101BF0003D3010BD012010BD002C0140E741000820
:101C00007047704784B001A880E80E0004B000203F
:101C10007047B0F840309BB243F43F43A0F84030E7
:101C200000207047B0F8403023F474535B045B0C21
:101C3000A0F84030002070470020704784B010B5F5
:101C400003AC84E80E00BDE8104000220123A0F898
:101C50004030A0F84020A0F84420A0F85020B0F870
:101C6000403004B09BB243F43F43A0F840301046EC
:101C70007047000070B5CB780A78032B0FD8DFE8E7
:101C800003F00264505930F8223023F4EC4323F07F
:101C900070031B041B0C43F4007320F8223040F641
:101CA0000F730C7830F8242044F4004545F080058B
:101CB0001A402A4320F824208A7A0D78002A40F01E
:101CC00097804C788A88002C4AD0B0F8504052084F
:101CD000A4B204EBC50400EB44045200C4F8002491
:101CE0000C7830F82420520608D530F82420134010
:101CF00043F4004343F0C00320F824300A7830F85E
:101D0000223023F4E04323F040031B041B0C83F038
:101D1000200343F4004343F0800320F822300020E6
:101D200070BD30F8223023F4EC4323F070031B0421
:101D30001B0CB2E730F8223023F4EC4323F070039D
:101D40001B041B0C43F4C063A7E730F8223023F4D4
:101D5000EC4323F070031B041B0C43F480639CE7EB
:101D6000B0F8503052089BB2043303EBC503520065
:101D700000F5806444F81320B0F850200D6992B249
:101D80000B7806323E2D02EBC30229D9C5F34F165C
:101D9000EB0604BF06F1FF339EB26E4B43EA862387
:101DA0009BB244F812300A7830F822305E040BD52A
:101DB00030F8223023F0F0031B051B0D43F44043A1
:101DC00043F0800320F822300A7830F8223023F4E0
:101DD000804323F070031B041B0C83F4405398E7EB
:101DE000C5F34F03ED0744BF01339BB29B02D7E716
:101DF00030F8252022F4F8721205120D42F4014247
:101E000042F0800220F82520B0F850200C7892B2E1
:101E100002EBC402CC8800F580656408640045F8D4
:101E20001240B0F850200C7892B2043202EBC40297
:101E30000C896408640045F812404A780C78002A3E
:101E400047D130F82420550408D530F82420134019
:101E500043F4404343F0800320F824300A7830F8FC
:101E600022305C060BD530F8223023F0F0031B053E
:101E70001B0D43F4004343F0C00320F822300A78DE
:101E800030F8223023F0F0031B051B0D43F4004310
:101E900043F0C00320F8223048F280020C7830F87A
:101EA000243023F4804323F070031B041B0C83F4C1
:101EB0004053134320F82430097830F8213023F4BC
:101EC000E04323F040031B041B0C134320F8213094
:101ED00025E730F82420520408D530F82420134098
:101EE00043F4404343F0800320F824300A7830F86C
:101EF00022305B060BD530F8223023F0F0031B05AF
:101F00001B0D43F4004343F0C00320F822300A784D
:101F100030F8223023F0F0031B051B0D43F440433F
:101F200043F0800320F8223048F280020C7830F829
:101F3000243023F4E04323F040031B041B0C134321
:101F400020F82430097830F8213023F4804323F03E
:101F50007003B8E70080FFFF10B58C7A4A780B78E1
:101F6000CCBB02B330F8232052060BD530F8232027
:101F700022F0F0021205120D42F4004242F0C002BB
:101F800020F823200A7830F8223023F4E04323F0AD
:101F900040031B041B0C43F4004343F0800320F870
:101FA0002230002010BD30F8232054040BD530F827
:101FB000232022F0F0021205120D42F4404242F0BA
:101FC000800220F823200A7830F8223023F480435E
:101FD00023F07003DDE7002A48D130F823205204B3
:101FE0000BD530F8232022F0F0021205120D42F436
:101FF000404242F0800220F823200A7830F8223054
:102000005C060BD530F8223023F0F0031B051B0DC6
:1020100043F4004343F0C00320F822300A7830F83C
:10202000223023F0F0031B051B0D43F4004343F063
:10203000C00320F8223048F280020C7830F82430B7
:1020400023F4804323F070031B041B0C134320F87C
:102050002430097830F8213023F4E04323F04003A2
:102060001B041B0C134320F821309AE730F823207F
:1020700052040BD530F8232022F0F0021205120D85
:1020800042F4404242F0800220F823200A7830F8DF
:1020900022305B060BD530F8223023F0F0031B050D
:1020A0001B0D43F4004343F0C00320F822300A78AC
:1020B00030F8223023F0F0031B051B0D43F440439E
:1020C00043F0800320F8223048F280020C7830F888
:1020D000243023F4E04323F040031B041B0C134380
:1020E00020F82430097830F8213023F4804323F09D
:1020F0007003B5E70A788AB9038823F4804323F094
:1021000040031B041B0C83F4805383F0100343F43F
:10211000004343F080030380002070474B7883B175
:1021200030F8223023F4E04323F040031B041B0C5F
:1021300083F0100343F4004343F0800320F822307F
:10214000EAE730F8223023F4804323F070031B04C5
:102150001B0C83F48053EDE74B780A7813B330F807
:1021600022305B060BD530F8223023F0F0031B053C
:102170001B0D43F4004343F0C00320F822300A78DB
:1021800030F8223023F4E04323F040031B041B0CFF
:1021900083F0300343F4004343F0800320F82230FF
:1021A0000020704730F822305B040BD530F8223025
:1021B00023F0F0031B051B0D43F4404343F0800361
:1021C00020F822300A7830F8223023F4804323F0BC
:1021D00070031B041B0C83F44053DBE711B980230D
:1021E000A0F84C3000207047002070470020704756
:1021F000B0F8440080B270470020704710B500244A
:10220000013300F580605B1000EB4202A34200D175
:1022100010BD31F8020B22F824000134F6E700006B
:1022200070B50E468A694978054601293369B07A46
:1022300066D19A421C469BBF00231446D21AB36152
:1022400088BFB261A3B210BBB28871692846FFF79C
:10225000D5FFB5F8503032789BB2023303EBC2039E
:1022600005EB4303C3F80044327835F8223023F4F9
:10227000E04323F040031B041B0C83F0300343F4C2
:10228000004343F0800325F82230002070BD3278EF
:1022900035F82210D20011F0400FB5F8501089B275
:1022A0001AD002310A4405EB4202C2F800443289D6
:1022B00071692846FFF7A2FF737832789BB935F829
:1022C000223023F0F0031B051B0D43F4004343F0C1
:1022D000C00325F82230C7E70A4405EB4202C2F8E2
:1022E0000444F288E4E7012BBED135F8223023F014
:1022F000F0031B051B0D43F4404343F08003E8E764
:102300009A4293BF0023D21AB261B36198BF1346B9
:10231000327870BBB5F850103E2B89B201F106013E
:1023200001EBC20105F5806018D9C3F34F12DB063B
:1023300004BF02F1FF339AB2384B43EA82239BB2C7
:1023400040F81130327835F8223023F4804323F0FE
:1023500070031B041B0C83F4405390E7C3F34F023C
:10236000DC0744BF013292B2920292B240F81120CF
:10237000E8E7B9B9B5F850103E2B89B201F1020176
:1023800001EBC20105F5806428D9C3F34F10DA06CA
:1023900004BF00F1FF3290B2204A42EA802292B29A
:1023A00044F81120727831785ABBB5F850203E2B92
:1023B00092B202F1060202EBC10205F5806015D966
:1023C000C3F34F11DC0604BF01F1FF3399B2134B85
:1023D00043EA81239BB240F81230B3E7C3F34F02C4
:1023E000D80744BF013292B29202D8E7C3F34F013B
:1023F000DB0744BF013189B2890289B240F812106B
:10240000A0E7012A9ED1B5F8502092B2023202EB29
:10241000C10205EB4202C2F8003493E70080FFFFDF
:1024200010B50024013300F580605B1000EB420220
:10243000A34200D110BD52F8240021F81400013449
:10244000F6E7D0F818321BB10020C3F81402704729
:1024500002207047D0F81C3210B5D0F818425BB19A
:1024600094F80002FF2807D09B6894F801222146C7
:102470009847FF2384F80032002010BD43230380D7
:10248000004870473C000020432303800048704709
:10249000800000204323038000487047D0000020C4
:1024A0000A23038000487047C400002038B5054661
:1024B000D0F8184201F0D0FCD5F81832C4F80C025C
:1024C0004BB1D5F81C3204F50371DB68D4F8040273
:1024D0009847002038BD022038BD0000F8B50F78BD
:1024E000064617F060030C4623D0202B19D1CA886A
:1024F0004B78C2B13906D0F818520BD5D0F81C125F
:1025000018468F682946B84729463046E28800F0C9
:1025100072FB06E085F8003285F80122294600F0BA
:102520007FFB0020F8BDD0F81C0284681846A04745
:10253000F7E74B780A2BF4D101220149E7E700BF06
:102540009801002010B50446812101F021FC0121F1
:10255000204601F01DFC8221204601F019FCD4F830
:10256000183253B1D4F81C325B689847D4F818027B
:1025700001F07CFC0023C4F81832002010BDF8B52F
:10258000037C04467BBB4FF400730222812101F0DF
:10259000EFFB4FF4007302220121204601F0E8FB1B
:1025A000082303228221204601F0E2FB4FF407704A
:1025B00001F058FC0646C4F8180220B30025D4F8F0
:1025C0001C321B689847277CC6F81452C6F818526C
:1025D00087B94FF40073D6F804220121204601F098
:1025E0002DFC3846F8BD40230222812101F0C0FBBA
:1025F0004023D0E74023D6F804220121204601F0F1
:102600001DFC2846F8BD0120F8BD19B1C0F81C1208
:102610000020704702207047D0F818320020C3F81D
:102620000812C3F810227047D0F818320020C3F8FF
:1026300004127047D0F8182210B562B1047C44B976
:102640004FF40073D2F80422012101F0F7FB0020BF
:1026500010BD4023F6E7022010BD08B580B1D0F8C8
:10266000143213B10023C0F8143209B1C0F81012AB
:102670000123027080F8FC3101F02CFB002008BD22
:10268000022008BD19B1C0F81412002070470220C2
:10269000704708B501F05EFB002008BD08B5D0F812
:1026A00014320BB9022008BD1B6898470028F9D1E5
:1026B00008BD08B5D0F814325B689847002008BD03
:1026C00038B500F502750446284600F064FA012387
:1026D00094F80812C4F8F431B4F80E32C4F8F831A2
:1026E00001F01F03012B0ED007D3022B10D001F0F5
:1026F0008001204601F05AFB03E02946204600F005
:10270000D5F8002038BD2946204600F0C9F9F8E781
:102710002946204600F0DCF9F3E738B504461546B3
:1027200011BBD0F8F431032B0FD1D0F80C31D0F815
:10273000102193420BD99B1A9A4228BF1A46C0F81F
:102740000C3192B2294600F07AFA002038BDD0F858
:1027500014321B6923B190F8FC21032A00D1984759
:10276000204600F074FAF0E7D0F814329B69002B91
:10277000EBD090F8FC21032AE7D19847E5E770B544
:10278000134604460E4600293DD1D0F8F421022A12
:102790000FD1C569026A954214D9AA1AC2611946B5
:1027A00092B200F035FA33461A461946204601F037
:1027B00045FB94F80032012B02D1002384F800324B
:1027C000002070BD8369B3FBF2F502FB153565B9D6
:1027D0009A420AD8D0F8F821934206D22A4600F04D
:1027E00017FAC4F8F8512B46DEE7D4F81432DB6848
:1027F0002BB194F8FC21032A01D1204698472046AA
:1028000000F030FAD5E7D0F814325B69002BD7D04E
:1028100090F8FC21032AD3D19847D1E7002238B59C
:10282000044640251146402301F0A2FA2B46C4F885
:10283000105100228021204601F09AFA012384F8E9
:10284000FC31D4F8183225622BB1D4F81432217936
:102850005B6820469847002038BD0174002070470F
:1028600090F8FC3180F8FD31042380F8FC31002021
:10287000704790F8FD3180F8FC310020704708B5B2
:1028800090F8FC21032A04D1D0F81432DB6903B19B
:102890009847002008BD10B50446802101F086FA53
:1028A0002046BDE81040002101F080BA37B54B78D2
:1028B00004460D46092B79D8DFE813F0C900E5007E
:1028C0007800D90078006D000A007800B9008D000A
:1028D0004B881A0A013A062A68D8DFE802F0041C7D
:1028E000296767495200D0F810321B680DF10601C4
:1028F000207C9847BDF80620002A67D0EB88002B83
:1029000064D09A4228BF1A460146ADF806202046F8
:1029100000F071F95AE0027CD0F8143232B99B6AA7
:102920000DF10600984702234370E3E7DB6AF7E7FF
:10293000DBB2052B3AD8DFE803F003070B0F1317C0
:10294000D0F810325B68D1E7D0F810329B68CDE741
:10295000D0F81032DB68C9E7D0F810321B69C5E740
:10296000D0F810325B69C1E7D0F810329B69BDE73F
:10297000037CDBB9D0F814320DF106005B6B98478D
:10298000B8E7037C93B9D0F814320DF106001B6B45
:1029900098470723C8E78B8843B9CB8833B990F8A9
:1029A000FC318D78032B05F07F0503D12046FFF71E
:1029B00072FF0BE080F8FE51294601F023FA204611
:1029C00000F045F92DB1022384F8FC31002003B05A
:1029D00030BD0123F8E78978304D01292970E5D809
:1029E00090F8FC31022B0CD0032BDFD1B1B90223BC
:1029F000416080F8FC31FFF75CFE204600F027F9CB
:102A0000E4E70029F9D001210323416080F8FC317B
:102A10002046FFF743FE0228EFD1C7E741680129AE
:102A2000EBD0C9B2FFF745FE29786160F0E7CA88AC
:102A3000012ABBD190F8FC31022B03D0032BB5D176
:102A4000011D64E70146002341F8083F5FE790F865
:102A5000FC31023B012BA9D80123C360D0F804321A
:102A60000BB10323C360022204F10C014FE74B8832
:102A7000012BABD1C4F80432D4F8143229469B6838
:102A800020469847B9E790F8FC31023B012B8DD8DE
:102A90004B88012B9AD10023ECE700BF990100205D
:102AA00038B590F8FC310446032B0D460DD10B7957
:102AB000012B0AD8D0F814329B689847EB8813B9D9
:102AC000204600F0C4F8002038BDFFF7E4FEFAE726
:102AD00070B50A788E8802F06002202A04460D46FE
:102AE000F3B205D1D0F814329B689847002070BD2E
:102AF0004A78012A1CD02AD3032AF7D190F8FC2166
:102B0000022A40D0032A02D0FFF7C5FEEEE74A882A
:102B100022B95E0602D0194601F048F9D4F8143201
:102B200029469B6820469847204600F090F8DDE74C
:102B300090F8FC21022A26D0032AE5D14A88002AEF
:102B4000D4D15906F0D0194601F03EF9E6E790F8E5
:102B5000FC21022A17D0032AD6D103F07F0516F0F4
:102B6000800F00EB0515194614BF143505F5827565
:102B700001F038F968B101232B6002222946204672
:102B800000F039F8B2E75A06B0D0194601F00EF954
:102B9000ACE72860F1E70B7803704B784370CA7894
:102BA0008B7803EB022343804A790B7903EB0223F2
:102BB0008380CA798B7903EB0223C380704730B5D9
:102BC00088B105462B1A15F8014BDBB2002CF9D160
:102BD0005B00023313800B7003234B700223013818
:102BE00010F8015F05B930BD5A1CCD54D2B2023382
:102BF000DBB28C54F4E71346022210B5C0F8F4217E
:102C000083610A46C361002101F00AF9002010BD6A
:102C100008B513460A46002101F002F9002008BD5C
:102C20001346032210B5C0F8F421C0F808310A4653
:102C3000C0F80C31002101F001F9002010BD08B5E9
:102C400013460A46002101F0F9F8002008BD08B536
:102C50000423C0F8F43100231A46194601F0E0F8C5
:102C6000002008BD08B50523C0F8F43100231A463A
:102C7000194601F0E3F8002008BD08B500F090FB0C
:102C8000002008BD30B5B0F9084085B0842C08BFDD
:102C90000024028A18BF03340B4690E8220003A8E0
:102CA00001900094284600F0ABFA012814BF0020E0
:102CB000039805B030BD08B5002808BF012000F01A
:102CC000BDFC002008BD00F1080343604FF0FF3257
:102CD000C3600361002382600360704700230361C7
:102CE000704743689A684B608A609A68516099603F
:102CF000036808610133036070470A6830B5531CEC
:102D00000AD103695A684A6091608B605960036810
:102D100008610133036030BD00F108035C68256879
:102D2000AA42EFD32346F9E74168826803698A60C3
:102D3000826851605968884208BF5A600022026167
:102D400018680138186070470A4B1B68013308D0B7
:102D50004FF0500383F31188BFF36F8FBFF34F8F92
:102D6000FEE74FF0500383F31188BFF36F8FBFF37B
:102D70004F8FFEE71401002006480068006880F3CA
:102D8000088862B661B6BFF34F8FBFF36F8F00DF65
:102D900000BF000008ED00E04FF0807340F8043CF5
:102DA000054B21F0010140F8081C40F80C3C40F8AC
:102DB000202C4038704700BF492D0008000000005B
:102DC000074B19680868B0E8F00F80F30988BFF373
:102DD0006F8F4FF0000080F311884EF00D0E70479A
:102DE000281900204FF0500383F31188BFF36F8F31
:102DF000BFF34F8F0A4A13680133012B13600DD1C3
:102E0000084B1B6813F0FF0F08D04FF0500383F3FB
:102E10001188BFF36F8FBFF34F8FFEE7704700BF7E
:102E20001401002004ED00E0084A136843B94FF094
:102E3000500383F31188BFF36F8FBFF34F8FFEE70B
:102E4000013B13600BB983F3118870471401002014
:102E5000EFF30980BFF36F8F0D4B1A6820E9F00F75
:102E600010602DE908404FF0500080F3118800F009
:102E700043FC4FF0000080F31188BDE8084019685A
:102E80000868B0E8F00F80F30988BFF36F8F7047D0
:102E90002819002008B54FF0500383F31188BFF3C1
:102EA0006F8FBFF34F8F00F0BFFA18B14FF0805211
:102EB000024B1A60002383F3118808BD04ED00E083
:102EC0004FF47A72054B1B68B3FBF2F3044A013BE3
:102ED00013600722034B1A60704700BF18010020DF
:102EE00014E000E010E000E013B51F4B00211A7859
:102EF000D2B20192FF221A701B781C4ADBB28DF805
:102F000003309DF8033003F0500313700722184B71
:102F10001A609DF80300541E00061CD401B11A600B
:102F20001A68120202F4E0621A60019B0E4ADBB2D8
:102F30001370104B1A6842F470021A601A6842F05B
:102F400070421A60FFF7BCFF00220B4B1A60FFF7BC
:102F500013FFFFF7F9FE9DF8032001215200D2B2C2
:102F60008DF803202246D4E700E400E09A01002017
:102F70009C01002020ED00E01401002010B50F4B53
:102F80001A68824218D35C681919884201BF4168E7
:102F9000184609195960446801198A4207D108493D
:102FA00009688A421FBF5168126809194160984236
:102FB000026018BF186010BD1346E1E72019002019
:102FC000A00100202DE9F041044600F025FA3D491A
:102FD0003D4D0B68FBB93D4A002056070FBF41F23B
:102FE000707307323A4B22F0070218BF9B1A134442
:102FF000384E083B23F00703706032605860186059
:103000000B60981A1360344B50601860334B186093
:103010004FF000432B602F68274216D1002C40D080
:1030200004F1080358071CBF23F00703083363B1FA
:103030002A4A16689046B34207D8264A1568686837
:10304000834204D809688D4207D1002429E02C6806
:10305000002CF7D02A462546F1E72968146811604C
:10306000C21A102A0FD9E818410708D04FF05003B0
:1030700083F31188BFF36F8FBFF34F8FFEE742607A
:103080006B60FFF77BFF6B681349F61A1F43002341
:103090000868C8F80060864238BF0E6008346F6068
:1030A0002B6000F053FA630708D04FF0500383F30E
:1030B0001188BFF36F8FBFF34F8FFEE72046BDE847
:1030C000F08100BFA001002014190020A4010020FD
:1030D00014190020201900201C19002018190020A4
:1030E00010B5044670B3184A50F8043C12681342F5
:1030F00008D14FF0500383F31188BFF36F8FBFF3F4
:103100004F8FFEE750F8081C41B14FF0500383F396
:103110001188BFF36F8FBFF34F8FFEE723EA0203DF
:1031200040F8043C00F078F9084A54F8043C11686F
:10313000A4F108000B441360FFF720FFBDE8104026
:1031400000F004BA10BD00BF1419002018190020A7
:10315000064A13681968064B19B94FF0FF321A6016
:1031600070471268D268D2685268F8E72C190020BC
:10317000041A0020F8B51B4B1B4E1D68044630682E
:103180000F460430FFF7D0FD334640B901203168C7
:10319000164EC96A3268884022EA00023260621C18
:1031A00007D137B1196812480431BDE8F840FFF77C
:1031B00098BD2C441A68A542546007D90D4A10687E
:1031C0001968BDE8F8400431FFF797BD0A4A106856
:1031D00019680431FFF791FD084B1A68944238BF13
:1031E0001C60F8BD4C1A002028190020D4190020BA
:1031F000241A0020301900202C190020041A002065
:103200002DE9F84F4FEA820A804650460F4699460C
:103210000B9EFFF7D7FE0546002800F0968054204D
:10322000FFF7D0FE0446002800F08C80AAF1040AC3
:10323000056355447B1E25F0070A00F134020F3761
:10324000597802F8011B13F8011F09B1BB42F7D1ED
:103250000A9D4FF0000B062D28BF0625271DE562AD
:103260006564384684F843B0C4F848B0FFF736FDCB
:10327000C5F1070504F11800FFF730FDC4F84CB0A4
:103280002461A561646284F850B04A4641465046C4
:10329000FFF782FD206006B13460FFF7A3FD324BDB
:1032A000324E1A68DFF8F08001321A603568002D5E
:1032B0004ED134601B68012B1DD108EB050014357D
:1032C000FFF701FD8C2DF8D1DFF8D090284D48464E
:1032D000FFF7F9FC2846FFF7F6FC2648FFF7F3FC5A
:1032E0002548FFF7F0FC2548FFF7EDFC244BC3F819
:1032F0000090244B1D600125234A24491368086867
:1033000001331360E26A05FA02F3034314200B60F1
:1033100000FB02803946FFF7E4FCFFF785FD1C4BFC
:103320001B6863B13368DA6AE36A9A4207D24FF0E6
:103330008052184B1A60BFF34F8FBFF36F8F284630
:10334000BDE8F88F2846FFF7CBFE4FF0FF35F6E7D4
:103350000F4B1B68002BCED13368DA6AE36A9A42BE
:1033600098BF3460C7E700BFC019002028190020AB
:10337000EC1900200C1A0020381A0020241A002012
:103380002C19002030190020D0190020D419002059
:10339000201A002004ED00E034190020D819002084
:1033A00013B50024164B009401938022234615493F
:1033B0001548FFF725FF012814D14FF0500383F380
:1033C0001188BFF36F8FBFF34F8F4FF0FF320F4B5A
:1033D0001A600F4B18600F4B1C6002B0BDE8104024
:1033E000FFF782BD013008D14FF0500383F31188FD
:1033F000BFF36F8FBFF34F8FFEE702B010BD00BF6A
:10340000001A00201F42000885360008041A002018
:10341000201A00204C1A0020024A1368013313605E
:10342000704700BFCC1900202DE9F84F3C4B1B68BA
:10343000002B53D13B4B1C6801341C60BCB93A4B88
:103440001A68126842B14FF0500383F31188BFF33A
:103450006F8FBFF34F8FFEE7344A1968106818600A
:103460001160334A136801331360FFF771FE314D69
:103470004FF0000B2B68304F9C423ED3DFF8A88002
:10348000DFF8C490D8F80020126872BB4FF0FF320A
:103490002A6032E006F1040A5046FFF745FCB16AA3
:1034A00019B106F11800FFF73FFC01224FF0140E8E
:1034B000F06AD9F8003002FA00F119431F4BC9F83D
:1034C00000100EFB00305146FFF70BFC3868F16A24
:1034D000C26A914228BF4FF0010BD3E7184A4FF060
:1034E000000B13680133136011E0D8F80020D26894
:1034F000D66871688C42CDD229603A680F4BD16A88
:1035000014224A439A58022A28BF4FF0010B0D4A51
:103510001268002A18BF4FF0010B5846BDE8F88F1B
:10352000CC1900204C1A00202C1900203019002042
:10353000081A0020041A002028190020341900203D
:10354000C8190020501A0020D41900202DE9F84392
:10355000314C236843B94FF0500383F31188BFF314
:103560006F8FBFF34F8FFEE7FFF73CFC2368013BF3
:10357000236024682CB10024FFF756FC2046BDE8E8
:10358000F883264B1B68002BF5D0DFF8A890244F5A
:10359000DFF8A480D9F80030E3B90CB1FFF7D8FD0B
:1035A000204D2C6844B101271F4EFFF73DFF00B1AD
:1035B0003760013CF9D12C601B4B1B68002BDAD023
:1035C0004FF08052194B1A60BFF34F8FBFF36F8FCC
:1035D0000124D1E7D9F80C300125DC68261D04F15F
:1035E0001800FFF7A1FB3046FFF79EFB1420E26AAC
:1035F000396805FA02F30B4300FB028031463B6059
:10360000FFF76FFB0A4BE26A1B68DB6A9A4224BF32
:10361000054B1D60BEE700BFCC190020C01900207B
:10362000D4190020C8190020501A002004ED00E031
:10363000281900200C1A00203419002008B540B9C0
:103640004FF080520D4B1A60BFF34F8FBFF36F8F57
:1036500008BD0B4B196841B14FF0500383F311883B
:10366000BFF36F8FBFF34F8FFEE7FFF7D5FEFFF776
:1036700081FDFFF76BFF0028E2D008BD04ED00E0FC
:10368000CC19002008B5174E174C236863B9174BA7
:103690001B68012BF8D94FF08052154B1A60BFF30D
:1036A0004F8FBFF36F8FEFE7FFF7B6FE3568FFF779
:1036B0004DFF002DE9D0FFF795FBF368DD68281D6D
:1036C000FFF732FB0B4A1368013B13602368013B91
:1036D0002360FFF7A9FB286BFFF702FD2846FFF7E1
:1036E000FFFCD2E7381A0020C4190020341900204A
:1036F00004ED00E0C0190020174B10B51A68174BF5
:1037000012B101221A6010BD1A60154B1B68B3FA82
:1037100083F31422DBB2C3F11F035A4311498C58BF
:10372000881844B94FF0500383F31188BFF36F8FAB
:10373000BFF34F8FFEE74468083264680A4494423E
:1037400008BF6268446008BF4260142202FB031392
:103750005B68DA68044BD5E7CC190020501A0020CA
:10376000D419002034190020281900201FB5114851
:10377000114A0023026001244FF460220193029356
:1037800003938360C3604361C26143600461FCF7DB
:10379000E5FD08B100F054F906230193002301A9C7
:1037A000044802940393FCF709FD08B100F048F9BE
:1037B00004B010BD781C00200024014010B5044660
:1037C00086B01022002102A800F014FC2268104BE1
:1037D0009A421BD103F56C439A6902A942F4007224
:1037E0009A619A690B4802F400720092009A9A69F1
:1037F00042F004029A619B6903F004030193019B68
:103800004023029303230393FCF7FAFE06B010BD96
:10381000002401400008014008B500F0AFF9012084
:10382000FFF749FAFBE708B50120FFF744FAFBE789
:1038300008B50C4C00224FF400512046FDF74CF81F
:103840000A20FCF7A9FC01224FF400512046FDF7A5
:1038500043F84FF47A70FCF79FFC0120FFF72BFA36
:10386000E8E700BF0010014008B50120FFF723FA88
:10387000FBE708B50120FFF71EFAFBE770B5214C06
:103880009AB0264601AD0FCE0FC53368002101A8BE
:103890002B60FFF7F7F91C4B06AD04F11406186016
:1038A0000FCE0FC53368002106A82B60FFF7EAF999
:1038B000164B0BAD04F1280618600FCE0FC5336808
:1038C00000210BA82B60FFF7DDF9114B10AD04F1BF
:1038D0003C0618600FCE0FC53368002110A82B607E
:1038E000FFF7D0F90B4B15AD503418600FCC0FC556
:1038F0002368002115A82B60FFF7C4F9064B186058
:103900001AB070BD2C400008AC1C0020B41C002074
:10391000B81C0020A81C0020B01C0020102210B5EC
:1039200088B00DEB0200002100F064FB184B194C2D
:103930009A69204642F010029A619A694FF4005148
:1039400002F010020192019A9A6942F020029A61F3
:103950009A6902F020020292029A9A6942F00402E5
:103960009A619B69002203F004030393039BFCF715
:10397000B3FF4FF40053049301230593022304A9DA
:10398000204606930793FCF73BFE08B010BD00BF2E
:103990000010024000100140282230B595B00DEB18
:1039A0000200002100F026FB142200210DEB020092
:1039B00000F020FB1022002101A800F01BFB4FF4B7
:1039C000803301240B93022512934FF480130AA82D
:1039D00013930A940E941195FDF78EFB0F234FF469
:1039E000806205930023214605A807930892099356
:1039F0000695FDF7BFFD122301934FF48043039317
:103A00004FF4800301A80493FDF704FF15B030BD07
:103A100008B5FCF79DFBFFF7BFFFFFF77FFFFFF740
:103A2000A5FEFFF72BFFFFF728F9FEE70268034B1F
:103A30009A4201D1FCF79EBB704700BF002C0140A9
:103A400070477047114B07B59A690F2142F0010288
:103A50009A619A696FF0010002F001020092009AE7
:103A6000DA6942F08052DA61DB69002203F08053A8
:103A70000193019BFCF76CFD054A536823F0E0635A
:103A800043F00073536003B05DF804FB0010024084
:103A90000000014010B5014688B000221920FCF753
:103AA00057FD1920FCF796FD144B01A99A6903A84C
:103AB00042F400629A619B69114C03F40063029323
:103AC000029BFDF777FEFDF765FE0E4B236040F28B
:103AD000E733E3600C4BB0FBF3F000230138606088
:103AE00020462361A360FEF737F820B92046FDF792
:103AF0002FFF08B010BD0120FBE700BF00100240FF
:103B0000BC1C0020002C014040420F007047FEE723
:103B1000FEE7FEE7FEE770470148FDF711B800BF7A
:103B2000F02600200148FDF73DBF00BFBC1C00206F
:103B30000F4B1A6842F001021A6059680D4A0A4098
:103B40005A601A6822F0847222F480321A601A686D
:103B500022F480221A605A6822F4FE025A604FF45E
:103B60001F029A604FF00062034B9A60704700BFDB
:103B7000001002400000FFF800ED00E008B5002250
:103B80000E490F48FEF769FD08B1FFF759FF0D49CF
:103B90000B48FEF777FD08B1FFF752FF0A490848C6
:103BA000FEF733FD08B1FFF74BFF0548FEF771FD47
:103BB00018B1BDE80840FFF743BF08BD2C01002045
:103BC000FC1C0020040000201C0100200020704785
:103BD0000020704710B5054C01462046FEF724FD35
:103BE0002046FEF727FD002010BD00BFFC1C002072
:103BF00010B5064C002206492046FEF70DFD05498A
:103C00002046FEF711FD002010BD00BFFC1C002067
:103C100008230020201F002007B50D4B02689A42A0
:103C200012D103F5DA33DA69142042F40002DA61C2
:103C3000DB69002203F4000301930521019BFCF7DB
:103C400087FC1420FCF7C6FC03B05DF804FB00BF42
:103C5000005C004000F22C41D0F85C04FEF730BD5F
:103C600000EB4113D3F83C22D0F85C04FEF755BDBD
:103C700000EB4113DA6BD0F85C04FEF780BDD0F89E
:103C80005C04FEF7FCBD836810B5022B044601D02E
:103C9000FFF7D6FED4F85C040121FEF7DEFDD4F870
:103CA0005C04BDE81040FEF7B9BD000010B5044645
:103CB000D0F85C04FEF7D4FDA36923B1024A13696E
:103CC00043F00603136110BD00ED00E0D0F85C0482
:103CD000FEF7CFBD0223082210B51C4904461C483C
:103CE00080E80E000023C0F85C44C4F82002836121
:103CF000C3610362FCF70AFE08B1FFF7A1FE0022D0
:103D000018231146D4F82002FDF7DEF958230022CB
:103D10008021D4F82002FDF7D7F9C02300228121A9
:103D2000D4F82002FDF7D0F94FF488730022012166
:103D3000D4F82002FDF7C8F94FF4807300228221E5
:103D4000D4F82002FDF7C0F9002010BD005C00404F
:103D5000F026002008B5D0F82002FCF74DFE03281D
:103D60009ABF024B185C022008BD00BF78420008D1
:103D700010B51C46D0F8200213462246FCF767FE19
:103D800003289ABF014B185C022010BD784200083E
:103D900008B5D0F82002FCF77DFE03289ABF024B3D
:103DA000185C022008BD00BF7842000808B5D0F8B2
:103DB0002002FDF73DF903289ABF024B185C022050
:103DC00008BD00BF7842000808B5D0F82002FDF712
:103DD00058F903289ABF024B185C022008BD00BFA7
:103DE000784200080A06D0F8203245BF01F07F0172
:103DF00003EB411303EB411393F82A0058BF93F8E8
:103E00002A02704708B5D0F82002FCF70CFE032800
:103E10009ABF024B185C022008BD00BF7842000820
:103E200008B5D0F82002FCF775FE03289ABF024BB4
:103E3000185C022008BD00BF7842000808B5D0F821
:103E40002002FCF748FE03289ABF024B185C0220B0
:103E500008BD00BF7842000808B5D0F82002FCF782
:103E600052FE08BD00487047541A00207047704742
:103E7000122301480B8070474801002004230148A9
:103E80000B8070475C010020002330B51D46DCB27A
:103E9000A24200D830BD040F092C94BF303437340F
:103EA00001F8134001EB4304000165700133EEE7B4
:103EB0001A2310B50B80094B186808331B68C0180B
:103EC0000AD0074B08221C680649FFF7DDFF0422D1
:103ED00005492046FFF7D8FF044810BDE8F7FF1F4B
:103EE000ECF7FF1F6201002072010020600100203A
:103EF00010B5044C0A4604482146FEF760FE2046F1
:103F000010BD00BF502B00209542000810B5044C96
:103F10000A4604482146FEF752FE204610BD00BF67
:103F2000502B0020A842000810B5044C0A46044853
:103F30002146FEF744FE204610BD00BF502B002056
:103F40007C42000810B5044C0A4604482146FEF79E
:103F500036FE204610BD00BF502B002087420008CF
:103F6000002103E00B4B5B58435004310A480B4BD4
:103F700042189A42F6D30A4A02E0002342F8043B70
:103F8000084B9A42F9D3FFF7D3FD00F00FF8FFF783
:103F90003FFD7047C8420008000000207C0100205F
:103FA0007C010020502D0020FEE7000070B50025A8
:103FB0000C4E0D4CA41BA410A54209D100F022F810
:103FC00000250A4E0A4CA41BA410A54205D170BDC1
:103FD00056F8253098470135EEE756F825309847D2
:103FE0000135F2E7C0420008C0420008C0420008A4
:103FF000C442000803460244934200D1704703F8CC
:10400000011BF9E7F8B500BFF8BC08BC9E46704735
:0C401000F8B500BFF8BC08BC9E46704725
:10401C0002030405060708090A0B0C0D0E0F1010FD
:10402C00544200081938000800000000000000008D
:10403C00800000004742000873380008FDFF0000B4
:10404C0000000000800000003B42000831380008EE
:10405C0000000000000000000002000030420008D8
:10406C00693800080000000000000000800000001B
:10407C002442000827380008FDFF00000000000063
:10408C00800000002E2E5C447269766572735C535E
:10409C00544D3332463178785F48414C5F447269F5
:1040AC007665725C5372635C73746D33326631780F
:1040BC00785F68616C5F6164632E63002E2E5C44D4
:1040CC007269766572735C53544D3332463178782D
:1040DC005F48414C5F4472697665725C5372635CF5
:1040EC0073746D3332663178785F68616C5F636FBF
:1040FC00727465782E63002E2E5C4472697665723C
:10410C00735C53544D3332463178785F48414C5F81
:10411C004472697665725C5372635C73746D33328E
:10412C00663178785F68616C5F6770696F2E6300C9
:10413C002E2E5C447269766572735C53544D333227
:10414C00463178785F48414C5F4472697665725CA1
:10415C005372635C73746D3332663178785F686167
:10416C006C5F7063642E63002E2E5C4472697665FE
:10417C0072735C53544D3332463178785F48414CFE
:10418C005F4472697665725C5372635C73746D33F1
:10419C0032663178785F68616C5F7263632E63009E
:1041AC002E2E5C447269766572735C53544D3332B7
:1041BC00463178785F48414C5F4472697665725C31
:1041CC005372635C73746D3332663178785F6861F7
:1041DC006C5F7263635F65782E63002E2E5C447295
:1041EC0069766572735C53544D3332463178785F1F
:1041FC0048414C5F4472697665725C5372635C73C0
:10420C00746D3332663178785F68616C5F74696D98
:10421C002E630049444C45004F535F4E564D5F543E
:10422C0061736B004F535F494F5F5461736B004F69
:10423C00535F434F4D5F5461736B004F535F496441
:10424C006C655F5461736B0064656661756C745466
:10425C0061736B0000000000000000000102030409
:10426C000607080900000000010203040002010215
:10427C0043444320436F6E666967004344432049BF
:10428C006E746572666163650053544D6963726F39
:10429C00656C656374726F6E6963730053544D3350
:1042AC0032205669727475616C20436F6D506F7259
:0442BC00740000008A
:0442C00035010008BC
:0442C40011010008DC
:1042C800010000007F25000845250008DD240008BE
:1042D800000000005524000843240008AD2400080D
:1042E8000000000000000000000000008924000811
:1042F8007D24000895240008A12400080902430031
:10430800020100C032090400000102020100052474
:1043180000100105240100010424020205240600FE
:10432800010705820308001009040100020A0000C1
:104338000007050102400000070581024000000057
:1043480009024300020100C0320904000001020210
:1043580001000524001001052401000104240202C3
:10436800052406000107058203080010090401005E
:10437800020A000000070501020002000705810289
:10438800000200000A0600020000004001000000D0
:1043980009074300020104C03209040000010202B7
:1043A8000100052400100105240100010424020273
:1043B8000524060001070582030800FF090401001F
:1043C800020A0000000705010240000007058102FB
:1043D80040000000AAAAAAAA00A24A04F13B0008C9
:1043E800CD3B0008D13B0008D53B0008713E0008D2
:1043F8007D3E0008F13E00080D3F0008B13E000870
:10440800293F0008453F000812010002020200404F
:104418008304405700020102030100000403090459
:104428001A03000000000000000000000000000067
:0C44380000000000000000000000000078
:0400000508003F614F
:00000001FF
