:020000040800F2
:1000000000500020812F0008252B0008272B000816
:10001000292B00082B2B00082D2B000800000000C6
:100020000000000000000000000000002F2B00086E
:10003000312B000800000000332B0008352B00088E
:10004000C92F0008C92F0008C92F0008C92F0008B0
:10005000C92F0008C92F0008C92F0008C92F0008A0
:10006000C92F0008C92F0008C92F0008C92F000890
:10007000C92F0008C92F0008C92F0008C92F000880
:10008000C92F0008C92F0008C92F0008C92F000870
:10009000392B0008C92F0008C92F0008C92F0008F4
:1000A000C92F0008452B0008C92F0008C92F0008D8
:1000B000C92F0008C92F0008C92F0008C92F000840
:1000C000C92F0008C92F0008C92F0008C92F000830
:1000D000C92F0008C92F0008C92F0008C92F000820
:1000E000C92F0008C92F0008C92F00080000000010
:1000F0000000000000000000000000000000000000
:0C01000000000000000000005FF808F1A3
:10010C0010B5054C237833B9044B13B10448AFF345
:10011C0000800123237010BD780100200000000036
:10012C002430000808B5034B1BB103490348AFF357
:10013C00008008BD000000007C0100202430000875
:10014C00074A08B51368032043F01003136000F04E
:10015C002DF8002002F0A4FC02F080FC002008BD69
:10016C0000200240034A044B11681B780B441360B7
:10017C00704700BFB803002000000020014B186836
:10018C00704700BFB803002038B50446FFF7F6FFF0
:10019C000546631C1EBF044B1B78E418FFF7EEFFEB
:1001AC00401B8442FAD838BD00000020C31E042B2B
:1001BC0010B5044603D9A221094802F04EFC094AA5
:1001CC002402D36804F4E06423F4E0631B041B0CE6
:1001DC0043F0BF6343F400331C43D46010BD00BF35
:1001EC004C30000800ED00E00F2A70B504460E46B6
:1001FC00154603D9BA211A4802F02FFC0F2E03D949
:10020C00BB21174802F029FC164B0120D968C1F319
:10021C000221C1F107030A1D042B28BF0423062A5F
:10022C0094BF0021033900FA03F2013A88403240AE
:10023C0001388A400540002C42EA05024FEA0212BE
:10024C00AFBF04F16044084B04F00F04D2B2A5BF59
:10025C00D2B204F561441A5584F8002370BD00BF76
:10026C004C30000800ED00E014ED00E010B5041E69
:10027C0003DACE21064802F0F0FB0123620904F0F8
:10028C001F0403FA04F4034B43F8224010BD00BFD3
:10029C004C30000800E100E02DE9F04FAA4A85B08F
:1002AC00904204468B46019213D002F58062904234
:1002BC000FD002F5806290420BD002F58062904222
:1002CC0007D002F58062904203D0CD219F4802F006
:1002DC00C4FBDBF8002091B211B1120C12041AB15C
:1002EC00CE219A4802F0B9FBDBF80420032A17D977
:1002FC00A2F11101012913D9954822F40011814270
:10030C000ED000F5801082420AD0A0F570208142F8
:10031C0006D090498A4203D0CF218C4802F09DFB35
:10032C000025A846DFF844A28B4E0122DBF80070B2
:10033C0002FA08F909EA0707B94540F08F80019BDA
:10034C009C4211D085498C420ED0854B9C420BD0DF
:10035C0001F500618C4207D001F580618C4203D01D
:10036C00DD217A4802F079FBDBF80410122900F049
:10037C00D38000F28D80022900F0C18077D800294B
:10038C0000F09380012900F0AE80FF2F82BF08F1AE
:10039C00804EAEF1080E4FEA8E014FF00F0E9DBF4E
:1003AC00204622684FEA880162680EFA01FC22EAB4
:1003BC000C0205FA01F188BF201D11430160DBF826
:1003CC000400C3004AD5DAF8182028F0030142F0E3
:1003DC000102CAF81820DAF8182001F1804102F065
:1003EC000102039201F5803108F0030C019B039A82
:1003FC004FEA8C0C8A680EFA0CFE9C4222EA0E0E16
:10040C0000F09B80554A944200F09980544B9C42DA
:10041C0000F0978002F50062944214BF042203227C
:10042C0002FA0CF242EA0E028A603268C1034CBF37
:10043C003A43BA433260726883034CBF3A43BA43BF
:10044C007260B268C1024CBF3A43BA43B260F26800
:10045C0083024CBF174322EA0707F76008F1010833
:10046C00B8F1100F7FF461AF05B0BDE8F08F032930
:10047C005FD0112989D1DBF80C20013A022A03D96B
:10048C00EC21324802F0E9FADBF80C5004357CE739
:10049C003448814209D01CD8A0F58010814204D088
:1004AC0000F5803081427FF470AFDBF80810022930
:1004BC0004D940F20711254802F0CFFADBF80810F6
:1004CC00C9B301290CBFC4F81090C4F814900825C6
:1004DC005BE725488142E8D000F580308142E4D0CA
:1004EC00A0F58010DEE7DBF80C20013A022A03D9D4
:1004FC00E521164802F0B1FADBF80C5045E7DBF8C1
:10050C000C20013A022A03D9F321104802F0A5FA73
:10051C00DBF80C50083538E7DBF80C20013A022ADE
:10052C0003D9FA21094802F098FADBF80C500C3583
:10053C002BE7002529E7042527E7002270E7012295
:10054C006EE702226CE700BF00080140873000080C
:10055C00000011100000221000040140000C0140AA
:10056C00001001400000211000003110001002406A
:10057C0070B5054616460C4621B940F2E311084801
:10058C0002F06BFA012E06D94FF4F271044802F016
:10059C0064FA2C6170BD002EFBD12404F9E700BF76
:1005AC00873000082DE9F041044686B0002869D058
:1005BC000268354B9A4203D09F21344802F04DFA21
:1005CC0094F8293403F0FF0223B984F82824204638
:1005DC0002F02CFB254603236E4655F8100B84F8CD
:1005EC00293401F06BF90FCD0FC62B6804F1040808
:1005FC00336098E80E00206801F050F90021206863
:10060C0001F066F90021234622460126084604F132
:10061C00100582F82810918601310F2982F8296083
:10062C0082F82B009063D063106402F12002F0D1A9
:10063C000022174683F828229A8601320F2A83F863
:10064C00297283F82B72C3F83872C3F83C72C3F862
:10065C00407203F12003EDD16E460FCD0FC62B680F
:10066C00336098E80E00206801F034F9012384F817
:10067C002470206884F8293401F004FC002006B0B2
:10068C00BDE8F0810120FAE7005C0040C0300008B2
:10069C0090F8283410B5012B04460ED0012180F8B7
:1006AC00281402F0EEFB206801F0EAFB206801F050
:1006BC00FCF8002084F8280410BD022010BD90F82E
:1006CC00282410B5012A04460BD0012280F82824D6
:1006DC0084F82410006801F0CDFB002084F8280475
:1006EC0010BD022010BD38B5044648B2002801F0F8
:1006FC007F05B5BF04EB451104EB4111283101F521
:10070C000A71C00F0D704870CB7094F828340A61D0
:10071C00012B09D00123206884F8283401F0F6F865
:10072C00002084F8280438BD022038BD4BB2002BC1
:10073C0001F07F02B5BF00EB421100EB41112831F3
:10074C0001F50A71DB0F10B50A704B7090F8283464
:10075C000446012B09D0012380F82834006801F0ED
:10076C0047FA002084F8280410BD022010BD70B593
:10077C00002601F07F014D01441984F8281205F57B
:10078C000A710144C4F83C22C4F84032C4F84462F3
:10079C0084F82962006801F08FFB304670BD01F0CF
:1007AC000F0100EB4111B1F84402704701F07F01D9
:1007BC0070B54D01441923640026012384F82810D8
:1007CC0005F128010144E263666484F8293000686D
:1007DC0001F072FB304670BD2DE9F347044600680A
:1007EC0001F052FB000400F19880206801F04CFBF2
:1007FC0041050FD522682046B2F8443023F48063BB
:10080C001B041B0CA2F8443002F047FA00212046CE
:10081C00FFF755FF206801F037FB470408D5226825
:10082C00B2F8443023F480431B041B0CA2F8443070
:10083C00206801F029FB860408D52268B2F8443000
:10084C0023F400531B041B0CA2F84430206801F065
:10085C001BFBC5041CD522682046B2F8403023F09F
:10086C0004031B041B0CA2F84030B2F8403023F0F8
:10087C0008031B041B0CA2F8403002F031FA22686A
:10088C00B2F8443023F480531B041B0CA2F8443000
:10089C00206801F0F9FA00051DD52068B0F8403049
:1008AC009BB243F00803A0F84030B0F8443023F476
:1008BC0000631B041B0CA0F84430B0F840309BB212
:1008CC0043F00403A0F8403001F0DEFAC10402D476
:1008DC00204602F0F5F9206801F0D6FA82050BD516
:1008EC0022682046B2F8443023F400731B041B0C1E
:1008FC00A2F8443002F0CDF9206801F0C5FAC30526
:10090C0008D52268B2F8443023F480731B041B0C06
:10091C00A2F8443002B0BDE8F0870023C84FDFF8DE
:10092C002483DFF82493ADF80430ADF8063020684A
:10093C00B0F844309BB2ADF804301B047FF555AFD2
:10094C00BDF8045015F00F0540F0AB80BDF8041055
:10095C00038811F010019BB226D13B400380B0F804
:10096C00503094F828209BB203EBC20300EB4300F9
:10097C00D0F80434E26BC3F3090363641344E363F8
:10098C00204602F07FF994F82430002BCFD0226C53
:10099C00002ACCD194F82430216843F08003A1F8CC
:1009AC004C3084F82420C2E7ADF80630BDF8063090
:1009BC001A051FD5B0F8503094F828229BB203EBDF
:1009CC00C20300EB4303D3F80C34B4F82C22C3F36A
:1009DC000903C4F8443204F22C4101F06DFB226887
:1009EC002046138823F070031B051B0D138002F0A7
:1009FC003BF99CE7BDF806301B0498D5038823F01F
:100A0C0070031B051B0D0380B0F8503094F828229E
:100A1C009BB203EBC20300EB4303D3F80C34C3F3D8
:100A2C000903C4F8443263B1B4F82C22D4F83C1254
:100A3C0001F042FBD4F83C32D4F844221344C4F8FD
:100A4C003C320021204602F015F92268D4F83852C5
:100A5C00B2F850103E2D89B201F1060102F580600A
:100A6C0017D9C5F34F13EE0604BF03F1FF339BB246
:100A7C0049EA83239BB240F8113013889BB203EAF6
:100A8C00080383F4405343F4004343F08003138082
:100A9C004DE7C5F34F03ED0744BF01339BB29B02F7
:100AAC00E8E730F825309BB2ADF80630BDF80630DB
:100ABC0019043FD530F825304FEA451A23F070035E
:100ACC001B051B0D20F8253004EB0A0191F832327E
:100ADC00002B74D1B0F8503091F828229BB2063319
:100AEC0003EBC20300EB4303D3F80064C6F309061F
:100AFC0036B1B1F82C223346D1F83C1201F0DCFAB5
:100B0C0004EB0A01D1F84432D1F83C223344C1F849
:100B1C004432D1F840323244C1F83C2223B1D1F8EE
:100B2C003802864280F08680A2449AF82812204629
:100B3C0002F0A0F8BDF806301A067FF5F8AE206872
:100B4C006E0130F82530A1199BB23B4020F82530BE
:100B5C0091F832300235002B78D1B0F8503091F842
:100B6C0028209BB2023303EBC20300EB4303D3F800
:100B7C00003404EB4515C3F309036B601BB18A8D7C
:100B8C00C96B01F087F922682644B2F8503096F808
:100B9C0028109BB2023303EBC10302EB4303D3F8DF
:100BAC000024F36BC2F3090272641A44336CF263CF
:100BBC002046002B40F0858002F064F8B7E691F8EF
:100BCC00283230F82320DB0012F4804FB0F850208C
:100BDC0092B221D00232134400EB4303D3F80064E9
:100BEC00C6F3090636B13346B1F82E22D1F83C12C1
:100BFC0001F062FA04EB0A0393F82812226832F827
:100C0C00213023F0F0031B051B0D43F4004343F08C
:100C1C00C00322F8213073E70632134400EB430380
:100C2C00D3F80064C6F30906002EE3D03346B1F8BE
:100C3C003022DBE791F828122046FFF798FD79E780
:100C4C000F8FFFFF8FBFFFFF0080FFFF91F8283051
:100C5C0030F82320DB0012F0400FB0F8502092B295
:100C6C0020D00232134400EB4303D3F8003404EBDE
:100C7C004515C3F309036B601BB1CA8DC96B01F039
:100C8C0009F9A31993F82810226832F8213023F0BF
:100C9C00F0031B051B0D43F4404343F0800322F883
:100CAC00213070E70632134400EB4303D3F80034D1
:100CBC0004EB4515C3F309036B60002BE1D00A8EDE
:100CCC00DCE7FFF773FD32E6012238B54BB2002B9F
:100CDC0001F07F05B5BF00EB451100EB4111283148
:100CEC0001F50A71DB0FEDB28A700D704B7090F844
:100CFC002834044693420ED080F82824006801F072
:100D0C0045F825B904F22C41206801F0C1F8002007
:100D1C0084F8280438BD022038BD38B500244BB205
:100D2C00002B01F07F02B5BF00EB421100EB41112B
:100D3C00283101F50A71DB0F8C700A704B7090F83A
:100D4C0028340546012B09D0012380F8283400688B
:100D5C0001F04EF885F82844204638BD022038BDF5
:100D6C0011F0800F1BBF01F07F0100EB411000EB75
:100D7C004110283008BF00F50A701AB982728380BE
:100D8C00002070470122C3801B0C82720381F7E79D
:100D9C002DE9F341044620B94FF4B871A54801F090
:100DAC005CFE236833B11A0704D140F27111A148DB
:100DBC0001F053FE2368DB0718D423689F0772D415
:100DCC002368190700F1B98023685A0700F1EB80FA
:100DDC00E369022B04D940F2B921964801F03DFE9B
:100DEC00E269002A40F05E81002020E0636833F461
:100DFC00803207D0B3F5A02F04D040F277118D4884
:100E0C0001F02BFE8C4D6B6803F00C03042B07D008
:100E1C006B6803F00C03082B0CD16B68DE0309D54F
:100E2C002B689D03C9D56368002BC6D1012002B085
:100E3C00BDE8F0816368B3F5803F10D12B6843F4B3
:100E4C0080332B60FFF79AF906462B689803B4D4CD
:100E5C00FFF794F9801B6428F7D90320E7E79BB9C7
:100E6C002B6823F480332B602B6823F480232B60B6
:100E7C00FFF784F906462B6899039ED5FFF77EF998
:100E8C00801B6428F7D9E8E7B3F5A02F2B6803D1B2
:100E9C0043F480232B60D1E723F480332B602B6841
:100EAC0023F48023CDE72369012B04D940F2AB1145
:100EBC00604801F0D2FD63691F2B04D94FF4D67141
:100ECC005C4801F0CAFD5C4D6B6813F00C0F07D049
:100EDC006B6803F00C03082B10D16B68DA030DD48C
:100EEC002B689B0702D52369012B9FD12B68626964
:100EFC0023F0F80343EAC2032B6061E722694F4BEE
:100F0C006AB101221A60FFF739F906462B689F0770
:100F1C00ECD4FFF733F9801B0228F7D99DE71A6050
:100F2C00FFF72CF906462B6898077FF549AFFFF7BA
:100F3C0025F9801B0228F6D98FE7A369012B04D968
:100F4C004FF4F6713B4801F088FDA2693A4D3C4BD9
:100F5C00DAB101221A60FFF711F906466B6A9B079A
:100F6C000DD54FF4FA52374B1B68B3FBF2F30193D8
:100F7C0000BF019B5A1E0192002BF9D124E7FFF709
:100F8C00FDF8801B0228E9D967E71A60FFF7F6F82D
:100F9C0006466B6A9F077FF517AFFFF7EFF8801BCC
:100FAC000228F6D959E7E368012B06D9052B04D0A2
:100FBC0040F21B211F4801F050FD1F4DEB69D8007A
:100FCC0024D40127EB6943F08053EB61EB6903F008
:100FDC0080530093009B1C4E3368D90518D5E368E9
:100FEC00012B33D12B6A43F001032B62FFF7C6F8B8
:100FFC0041F2883680462B6A9B074CD5002F3FF474
:10100C00E7AEEB6923F08053EB61E1E60027E2E702
:10101C00336843F480733360FFF7B0F8804633686D
:10102C00DA05DCD4FFF7AAF8A0EB08006428F6D99F
:10103C0013E700BFF83000080010024000004242E5
:10104C00800442421401002000700040ABB92B6AAE
:10105C0041F2883823F001032B622B6A23F004033E
:10106C002B62FFF78BF806462B6A9807C6D5FFF75D
:10107C0085F8801B4045F7D9EFE6052B2B6A03D189
:10108C0043F004032B62ADE723F001032B622B6AC0
:10109C0023F00403A9E7FFF771F8A0EB0800B042B6
:1010AC00A9D9DAE6384D6B6803F00C03082B3FF432
:1010BC00BDAE022A354E57D1236A33F4803304D0A7
:1010CC0040F2C221324801F0C8FC636A33F440227A
:1010DC0023F4802110D0B2F5801F0DD0B2F5001F83
:1010EC000AD0B1F5401F07D0B3F5601F04D040F211
:1010FC00C321274801F0B1FC00233360FFF73EF811
:10110C0007462B68990129D4236AB3F5803F0ED189
:10111C00A36833F4003304D040F2D9211C4801F009
:10112C009CFC6B68A26823F4003313436B60236A46
:10113C00616A6A680B4322F4741213436B600123D7
:10114C003360FFF71BF804462B689A013FF54CAE51
:10115C00FFF714F8001B0228F6D97EE6FFF70EF80D
:10116C00C01B0228CDD978E600233360FFF706F8C0
:10117C0004462B689B017FF537AEFEF7FFFF001B83
:10118C000228F6D969E600BF001002406000424216
:10119C00F830000830B5194B87B002AC03F11005DC
:1011AC00224618685968083303C2AB421446F7D17B
:1011BC0001238DF80430022311498DF805304B685A
:1011CC0003F00C02082A17D1C3F3834206A8024489
:1011DC00DB0312F8102C0CD54B680A48C3F34043C0
:1011EC00504306AA134413F8143CB0FBF3F007B0B9
:1011FC0030BD05485043FAE70248F8E73C30000898
:10120C000010024000127A0000093D002DE9F04167
:10121C000E46044620B940F22E317F4801F01DFCE9
:10122C0023681D0704D140F22F317B4801F015FCD7
:10123C00022E04D94FF44C71774801F00EFC774A1A
:10124C00136803F007039E423DD82368980747D4E0
:10125C002368DA0770D4714A136803F007039E42BF
:10126C00C0F0B58023686E4D13F0040F40F0BB80C6
:10127C0023681B0717D5236933F480620CD023F441
:10128C000072B2F5A06F07D0B3F5C06F04D04FF465
:10129C006E71614801F0E1FB6B68226923F46053C5
:1012AC0043EAC2036B60FFF775FF6B685D4AC3F3DB
:1012BC000313D35CD8405C4B1860002001F0F0FBAA
:1012CC000020BDE8F081136823F00703334313605B
:1012DC00136803F007039E42B7D00120BDE8F081EC
:1012EC004F4D13F0040F1EBF6A6842F4E0626A604F
:1012FC00190742BF6B6843F460536B60A36833F00B
:10130C00800212D023F02002902A0ED023F040024B
:10131C00A02A0AD023F01002C02A06D0F02B04D049
:10132C0040F256313C4801F098FB6B68A26823F000
:10133C00F00313436B608BE76368022B04D940F214
:10134C005D31354801F089FB6268354D012A2B6807
:10135C001DD113F4003FC0D06B6841F2883823F0E4
:10136C00030313436B60FEF709FF63680746012B09
:10137C0015D16B6803F00C03042B3FF46CAFFEF734
:10138C00FDFEC01B4045F4D90320BDE8F081022AC4
:10139C0002D113F0007FDEE713F0020FDBE7022B24
:1013AC0010D16B6803F00C03082B3FF454AFFEF71D
:1013BC00E5FEC01B4045F4D9E6E7FEF7DFFEC01B97
:1013CC004045E1D86B6813F00C0FF6D143E7136876
:1013DC0023F0070333431360136803F007039E42A3
:1013EC007FF47BAF3EE7E36833F480620CD023F4E8
:1013FC000072B2F5A06F07D0B3F5C06F04D040F205
:10140C00B131054801F029FB6B68E26823F4E06315
:10141C0013436B602CE700BFF8300008002002403B
:10142C0000100240A331000814010020044B054AAF
:10143C005B68C3F3C223D35C034A1068D84070477F
:10144C0000100240B33100081401002038B50D46DD
:10145C00044620B94FF4A661114801F0FEFA25B9F3
:10146C0040F231510E4801F0F8FA0F2323600D4B76
:10147C005A6802F0030262605A6802F0F002A2603D
:10148C005A6802F4E062E2605B68DB0803F4E06334
:10149C002361054B1B6803F007032B6038BD00BFAD
:1014AC00F8300008001002400020024003682DE9CB
:1014BC00F34113F0130F054603D17C21454801F08D
:1014CC00CCFA2B68D90728D56B6833F4407303D05A
:1014DC008221404801F0C1FA3F4CE369DA0044D460
:1014EC000127E36943F08053E361E36903F0805320
:1014FC000193019B394E3368DB0538D5236A13F40D
:10150C00407348D1236A6A6823F4407313432362FF
:10151C001FB1E36923F08053E3612B689B070ED561
:10152C00AB6833F4404303D0C9212A4801F095FA43
:10153C00294AA968536823F440430B435360286835
:10154C0010F0100024D0EB6833F4800304D040F288
:10155C002511204801F081FA1F4AE96853680020E0
:10156C0023F480030B43536012E00027C2E7336877
:10157C0043F480733360FEF701FE80463368D80570
:10158C00BCD4FEF7FBFDA0EB08006428F6D90320C1
:10159C0002B0BDE8F0816A6802F440729342B1D0A7
:1015AC0001200F4A236A1060002023F44071106060
:1015BC002162D907A6D5FEF7E1FD41F2883806462F
:1015CC00236A9A079ED4FEF7D9FD801B4045F7D9B4
:1015DC00DDE700BF30310008001002400070004011
:1015EC0040044242704700000368104A10B5934211
:1015FC0004460FD0B3F1804F0CD0A2F59432934235
:10160C0008D002F58062934204D040F26111084880
:10161C0001F023FA23680020DA6842F00102DA6054
:10162C001A6842F001021A6010BD00BF002C014084
:10163C006B3100087047704770477047036810B5EE
:10164C001A69044691070ED5DA6892070BD56FF02C
:10165C0002021A6101229B6902779B0777D0FFF780
:10166C00EAFF0023237723681A69500710D5DA683C
:10167C0051070DD56FF004021A6102229B69227783
:10168C0013F4407F204668D0FFF7D5FF0023237763
:10169C0023681A6912070FD5DA6810070CD56FF09A
:1016AC0008021A610422DB692277990720465AD076
:1016BC00FFF7C1FF0023237723681A69D20610D5E0
:1016CC00DA68D0060DD56FF010021A610822DB69BA
:1016DC00227713F4407F20464BD0FFF7ACFF00235A
:1016EC00237723681A69D10708D5DA68D20705D59C
:1016FC006FF0010220461A6101F0A4F923681A69FF
:10170C00100608D5DA68110605D56FF08002204660
:10171C001A6100F0C2F823681A69520608D5DA6813
:10172C00500605D56FF0400220461A61FFF785FF81
:10173C0023681A69910622D5DA6892061FD56FF0D4
:10174C0020022046BDE810401A6100F0A5B8FFF752
:10175C0071FF2046FFF770FF83E7FFF76BFF204612
:10176C00FFF76AFF92E7FFF765FF2046FFF764FF7C
:10177C00A0E7FFF75FFF2046FFF75EFFAFE710BD66
:10178C001A4A036890420AD0B0F1804F07D0A2F5F4
:10179C009432904203D002F58062904215D14A688F
:1017AC0023F070031343114A90420AD0B0F1804FDA
:1017BC0007D0A2F59432904203D002F58062904299
:1017CC0003D1CA6823F4407313434A6923F080039E
:1017DC00134303608B68C3620B688362034B9842AC
:1017EC0004BF0B690363012343617047002C014064
:1017FC0010B50446002849D00368254A93420ED000
:10180C00B3F1804F0BD0A2F59432934207D002F57E
:10181C008062934203D0D9211E4801F01EF9A368BF
:10182C0033F0100209D023F04002202A05D0402BBF
:10183C0003D0DA21174801F010F9236933F48072D0
:10184C0006D0B3F5007F03D0DB21124801F005F977
:10185C00A36933F0800303D0DC210E4801F0FDF8BE
:10186C0094F83D3003F0FF0223B984F83C20204665
:10187C00FFF7B8FE0223206884F83D30211DFFF7E6
:10188C007FFF0123002084F83D3010BD012010BDE6
:10189C00002C01406B3100087047704784B001A8E0
:1018AC0080E80E0004B000207047B0F840309BB2C6
:1018BC0043F43F43A0F8403000207047B0F840306C
:1018CC0023F474535B045B0CA0F840300020704789
:1018DC000020704784B010B503AC84E80E00BDE85E
:1018EC00104000220123A0F84030A0F84020A0F8BE
:1018FC004420A0F85020B0F8403004B09BB243F420
:10190C003F43A0F8403010467047000070B5CB78CC
:10191C000A78032B0FD8DFE803F00264505930F833
:10192C00223023F4EC4323F070031B041B0C43F410
:10193C00007320F8223040F60F730C7830F8242016
:10194C0044F4004545F080051A402A4320F8242031
:10195C008A7A0D78002A40F097804C788A88002C7F
:10196C004AD0B0F850405208A4B204EBC50400EBC6
:10197C0044045200C4F800240C7830F82420520699
:10198C0008D530F82420134043F4004343F0C0033F
:10199C0020F824300A7830F8223023F4E04323F086
:1019AC0040031B041B0C83F0200343F4004343F05F
:1019BC00800320F82230002070BD30F8223023F450
:1019CC00EC4323F070031B041B0CB2E730F82230FD
:1019DC0023F4EC4323F070031B041B0C43F4C0638F
:1019EC00A7E730F8223023F4EC4323F070031B04F8
:1019FC001B0C43F480639CE7B0F8503052089BB248
:101A0C00043303EBC503520000F5806444F8132043
:101A1C00B0F850200D6992B20B7806323E2D02EBD5
:101A2C00C30229D9C5F34F16EB0604BF06F1FF33E9
:101A3C009EB26E4B43EA86239BB244F812300A786E
:101A4C0030F822305E040BD530F8223023F0F0034E
:101A5C001B051B0D43F4404343F0800320F8223058
:101A6C000A7830F8223023F4804323F070031B04EF
:101A7C001B0C83F4405398E7C5F34F03ED0744BFA9
:101A8C0001339BB29B02D7E730F8252022F4F87281
:101A9C001205120D42F4014242F0800220F825207A
:101AAC00B0F850200C7892B202EBC402CC8800F54E
:101ABC0080656408640045F81240B0F850200C783A
:101ACC0092B2043202EBC4020C896408640045F83B
:101ADC0012404A780C78002A47D130F8242055045B
:101AEC0008D530F82420134043F4404343F08003DE
:101AFC0020F824300A7830F822305C060BD530F808
:101B0C00223023F0F0031B051B0D43F4004343F07C
:101B1C00C00320F822300A7830F8223023F0F0038A
:101B2C001B051B0D43F4004343F0C00320F8223087
:101B3C0048F280020C7830F8243023F4804323F0F0
:101B4C0070031B041B0C83F44053134320F8243004
:101B5C00097830F8213023F4E04323F040031B04D0
:101B6C001B0C134320F8213025E730F824205204B5
:101B7C0008D530F82420134043F4404343F080034D
:101B8C0020F824300A7830F822305B060BD530F878
:101B9C00223023F0F0031B051B0D43F4004343F0EC
:101BAC00C00320F822300A7830F8223023F0F003FA
:101BBC001B051B0D43F4404343F0800320F82230F7
:101BCC0048F280020C7830F8243023F4E04323F000
:101BDC0040031B041B0C134320F82430097830F805
:101BEC00213023F4804323F07003B8E70080FFFF1B
:101BFC0010B58C7A4A780B78CCBB02B330F8232022
:101C0C0052060BD530F8232022F0F0021205120DEB
:101C1C0042F4004242F0C00220F823200A7830F847
:101C2C00223023F4E04323F040031B041B0C43F449
:101C3C00004343F0800320F82230002010BD30F820
:101C4C00232054040BD530F8232022F0F002120587
:101C5C00120D42F4404242F0800220F823200A7810
:101C6C0030F8223023F4804323F07003DDE7002AA0
:101C7C0048D130F8232052040BD530F8232022F021
:101C8C00F0021205120D42F4404242F0800220F89C
:101C9C0023200A7830F822305C060BD530F822303D
:101CAC0023F0F0031B051B0D43F4004343F0C0036A
:101CBC0020F822300A7830F8223023F0F0031B058C
:101CCC001B0D43F4004343F0C00320F8223048F2CC
:101CDC0080020C7830F8243023F4804323F0700316
:101CEC001B041B0C134320F82430097830F82130E6
:101CFC0023F4E04323F040031B041B0C134320F894
:101D0C0021309AE730F8232052040BD530F82320E9
:101D1C0022F0F0021205120D42F4404242F0800211
:101D2C0020F823200A7830F822305B060BD530F8E7
:101D3C00223023F0F0031B051B0D43F4004343F04A
:101D4C00C00320F822300A7830F8223023F0F00358
:101D5C001B051B0D43F4404343F0800320F8223055
:101D6C0048F280020C7830F8243023F4E04323F05E
:101D7C0040031B041B0C134320F82430097830F863
:101D8C00213023F4804323F07003B5E70A788AB935
:101D9C00038823F4804323F040031B041B0C83F4BF
:101DAC00805383F0100343F4004343F0800303801B
:101DBC00002070474B7883B130F8223023F4E04395
:101DCC0023F040031B041B0C83F0100343F400436B
:101DDC0043F0800320F82230EAE730F8223023F475
:101DEC00804323F070031B041B0C83F48053EDE73A
:101DFC004B780A7813B330F822305B060BD530F8E9
:101E0C00223023F0F0031B051B0D43F4004343F079
:101E1C00C00320F822300A7830F8223023F4E04353
:101E2C0023F040031B041B0C83F0300343F40043EA
:101E3C0043F0800320F822300020704730F8223025
:101E4C005B040BD530F8223023F0F0031B051B0D7F
:101E5C0043F4404343F0800320F822300A7830F8F2
:101E6C00223023F4804323F070031B041B0C83F4F7
:101E7C004053DBE711B98023A0F84C3000207047A9
:101E8C000020704700207047B0F8440080B27047C3
:101E9C000020704710B50024013300F580605B1002
:101EAC0000EB4202A34200D110BD31F8020B22F824
:101EBC0024000134F6E7000070B50E468A694978B3
:101ECC00054601293369B07A66D19A421C469BBFFC
:101EDC0000231446D21AB36188BFB261A3B210BBFF
:101EEC00B28871692846FFF7D5FFB5F850303278C3
:101EFC009BB2023303EBC20305EB4303C3F800446C
:101F0C00327835F8223023F4E04323F040031B04ED
:101F1C001B0C83F0300343F4004343F0800325F89B
:101F2C002230002070BD327835F82210D20011F02A
:101F3C00400FB5F8501089B21AD002310A4405EBA3
:101F4C004202C2F80044328971692846FFF7A2FFA9
:101F5C00737832789BB935F8223023F0F0031B05E7
:101F6C001B0D43F4004343F0C00325F82230C7E7B0
:101F7C000A4405EB4202C2F80444F288E4E7012B60
:101F8C00BED135F8223023F0F0031B051B0D43F4B2
:101F9C00404343F08003E8E79A4293BF0023D21AF0
:101FAC00B261B36198BF1346327870BBB5F850106C
:101FBC003E2B89B201F1060101EBC20105F58060EF
:101FCC0018D9C3F34F12DB0604BF02F1FF339AB2E8
:101FDC00384B43EA82239BB240F81130327835F803
:101FEC00223023F4804323F070031B041B0C83F476
:101FFC00405390E7C3F34F02DC0744BF013292B267
:10200C00920292B240F81120E8E7B9B9B5F8501035
:10201C003E2B89B201F1020101EBC20105F580648E
:10202C0028D9C3F34F10DA0604BF00F1FF3290B287
:10203C00204A42EA802292B244F811207278317818
:10204C005ABBB5F850203E2B92B202F1060202EBBD
:10205C00C10205F5806015D9C3F34F11DC0604BF2E
:10206C0001F1FF3399B2134B43EA81239BB240F841
:10207C001230B3E7C3F34F02D80744BF013292B218
:10208C009202D8E7C3F34F01DB0744BF013189B299
:10209C00890289B240F81210A0E7012A9ED1B5F846
:1020AC00502092B2023202EBC10205EB4202C2F89E
:1020BC00003493E70080FFFF10B50024013300F5D6
:1020CC0080605B1000EB4202A34200D110BD52F8BD
:1020DC00240021F814000134F6E7D0F818321BB1B3
:1020EC000020C3F81402704702207047D0F81C324D
:1020FC0010B5D0F818425BB194F80002FF2807D055
:10210C009B6894F8012221469847FF2384F80032FB
:10211C00002010BD43230380004870473C00002082
:10212C004323038000487047800000204323038032
:10213C0000487047D00000200A23038000487047F5
:10214C00C400002038B50546D0F8184200F08EFEC9
:10215C00D5F81832C4F80C024BB1D5F81C3204F582
:10216C000371DB68D4F804029847002038BD0220C4
:10217C0038BD0000F8B50F78064617F060030C4622
:10218C0023D0202B19D1CA884B78C2B13906D0F88C
:10219C0018520BD5D0F81C1218468F682946B84730
:1021AC0029463046E28800F072FB06E085F80032E2
:1021BC0085F80122294600F07FFB0020F8BDD0F8FD
:1021CC001C0284681846A047F7E74B780A2BF4D119
:1021DC0001220149E7E700BF9401002010B5044635
:1021EC00812100F0DFFD0121204600F0DBFD822182
:1021FC00204600F0D7FDD4F8183253B1D4F81C3275
:10220C005B689847D4F8180200F03AFE0023C4F833
:10221C001832002010BDF8B5037C04467BBB4FF48C
:10222C0000730222812100F0ADFD4FF400730222F5
:10223C000121204600F0A6FD08230322822120461E
:10224C0000F0A0FD4FF4077000F016FE0646C4F82F
:10225C00180220B30025D4F81C321B689847277C41
:10226C00C6F81452C6F8185287B94FF40073D6F852
:10227C0004220121204600F0EBFD3846F8BD402336
:10228C000222812100F07EFD4023D0E74023D6F8C6
:10229C0004220121204600F0DBFD2846F8BD012078
:1022AC00F8BD19B1C0F81C1200207047022070470D
:1022BC00D0F818320020C3F80812C3F81022704767
:1022CC00D0F818320020C3F804127047D0F8182246
:1022DC0010B562B1047C44B94FF40073D2F80422F7
:1022EC00012100F0B5FD002010BD4023F6E70220CF
:1022FC0010BD08B580B1D0F8143213B10023C0F86A
:10230C00143209B1C0F810120123027080F8FC31AC
:10231C0000F0EAFC002008BD022008BD19B1C0F88D
:10232C001412002070470220704708B500F01CFD05
:10233C00002008BD08B5D0F814320BB9022008BD36
:10234C001B6898470028F9D108BD08B5D0F814329D
:10235C005B689847002008BD38B500F50275044647
:10236C00284600F064FA012394F80812C4F8F431FA
:10237C00B4F80E32C4F8F83101F01F03012B0ED063
:10238C0007D3022B10D001F08001204600F018FD7D
:10239C0003E02946204600F0D5F8002038BD294638
:1023AC00204600F0C9F9F8E72946204600F0DCF990
:1023BC00F3E738B50446154611BBD0F8F431032BBE
:1023CC000FD1D0F80C31D0F8102193420BD99B1AB5
:1023DC009A4228BF1A46C0F80C3192B2294600F036
:1023EC007AFA002038BDD0F814321B6923B190F86A
:1023FC00FC21032A00D19847204600F074FAF0E73C
:10240C00D0F814329B69002BEBD090F8FC21032AF6
:10241C00E7D19847E5E770B5134604460E46002908
:10242C003DD1D0F8F421022A0FD1C569026A954238
:10243C0014D9AA1AC261194692B200F035FA334681
:10244C001A461946204600F003FD94F80032012B81
:10245C0002D1002384F80032002070BD8369B3FBE5
:10246C00F2F502FB153565B99A420AD8D0F8F82175
:10247C00934206D22A4600F017FAC4F8F8512B46BC
:10248C00DEE7D4F81432DB682BB194F8FC21032A74
:10249C0001D120469847204600F030FAD5E7D0F815
:1024AC0014325B69002BD7D090F8FC21032AD3D1CE
:1024BC009847D1E7002238B5044640251146402301
:1024CC0000F060FC2B46C4F81051002280212046FD
:1024DC0000F058FC012384F8FC31D4F81832256242
:1024EC002BB1D4F8143221795B6820469847002030
:1024FC0038BD01740020704790F8FC3180F8FD3134
:10250C00042380F8FC310020704790F8FD3180F8EE
:10251C00FC310020704708B590F8FC21032A04D147
:10252C00D0F81432DB6903B19847002008BD10B510
:10253C000446802100F044FC2046BDE810400021F8
:10254C0000F03EBC37B54B7804460D46092B79D8C4
:10255C00DFE813F0C900E5007800D90078006D00C1
:10256C000A007800B9008D004B881A0A013A062A35
:10257C0068D8DFE802F0041C296767495200D0F8DC
:10258C0010321B680DF10601207C9847BDF806201F
:10259C00002A67D0EB88002B64D09A4228BF1A46D9
:1025AC000146ADF80620204600F071F95AE0027C95
:1025BC00D0F8143232B99B6A0DF106009847022309
:1025CC004370E3E7DB6AF7E7DBB2052B3AD8DFE8C9
:1025DC0003F003070B0F1317D0F810325B68D1E729
:1025EC00D0F810329B68CDE7D0F81032DB68C9E721
:1025FC00D0F810321B69C5E7D0F810325B69C1E71F
:10260C00D0F810329B69BDE7037CDBB9D0F81432EB
:10261C000DF106005B6B9847B8E7037C93B9D0F8D3
:10262C0014320DF106001B6B98470723C8E78B8803
:10263C0043B9CB8833B990F8FC318D78032B05F076
:10264C007F0503D12046FFF772FF0BE080F8FE51A7
:10265C00294600F0E1FB204600F045F92DB102239C
:10266C0084F8FC31002003B030BD0123F8E78978F1
:10267C00304D01292970E5D890F8FC31022B0CD093
:10268C00032BDFD1B1B90223416080F8FC31FFF795
:10269C005CFE204600F027F9E4E70029F9D001217F
:1026AC000323416080F8FC312046FFF743FE0228EB
:1026BC00EFD1C7E741680129EBD0C9B2FFF745FE5E
:1026CC0029786160F0E7CA88012ABBD190F8FC3107
:1026DC00022B03D0032BB5D1011D64E70146002367
:1026EC0041F8083F5FE790F8FC31023B012BA9D879
:1026FC000123C360D0F804320BB10323C360022260
:10270C0004F10C014FE74B88012BABD1C4F8043218
:10271C00D4F8143229469B6820469847B9E790F8BC
:10272C00FC31023B012B8DD84B88012B9AD1002315
:10273C00ECE700BF9501002038B590F8FC31044659
:10274C00032B0D460DD10B79012B0AD8D0F814327E
:10275C009B689847EB8813B9204600F0C4F800201A
:10276C0038BDFFF7E4FEFAE770B50A788E8802F000
:10277C006002202A04460D46F3B205D1D0F814327B
:10278C009B689847002070BD4A78012A1CD02AD338
:10279C00032AF7D190F8FC21022A40D0032A02D058
:1027AC00FFF7C5FEEEE74A8822B95E0602D019464D
:1027BC0000F006FBD4F8143229469B682046984753
:1027CC00204600F090F8DDE790F8FC21022A26D094
:1027DC00032AE5D14A88002AD4D15906F0D01946EB
:1027EC0000F0FCFAE6E790F8FC21022A17D0032A45
:1027FC00D6D103F07F0516F0800F00EB05151946B6
:10280C0014BF143505F5827500F0F6FA68B1012392
:10281C002B6002222946204600F039F8B2E75A060E
:10282C00B0D0194600F0CCFAACE72860F1E70B7891
:10283C0003704B784370CA788B7803EB0223438088
:10284C004A790B7903EB02238380CA798B7903EBEA
:10285C000223C380704730B588B105462B1A15F892
:10286C00014BDBB2002CF9D15B00023313800B70EF
:10287C0003234B700223013810F8015F05B930BDFA
:10288C005A1CCD54D2B20233DBB28C54F4E713464B
:10289C00022210B5C0F8F42183610A46C3610021FD
:1028AC0000F0C8FA002010BD08B513460A460021F6
:1028BC0000F0C0FA002008BD1346032210B5C0F882
:1028CC00F421C0F808310A46C0F80C31002100F0A0
:1028DC00BFFA002010BD08B513460A46002100F0CF
:1028EC00B7FA002008BD08B50423C0F8F431002362
:1028FC001A46194600F09EFA002008BD08B50523BB
:10290C00C0F8F43100231A46194600F0A1FA002051
:10291C0008BD0000102210B588B00DEB020000219C
:10292C0000F072FB184B194C9A69204642F01002C9
:10293C009A619A694FF4005102F010020192019AC7
:10294C009A6942F020029A619A6902F0200202927E
:10295C00029A9A6942F004029A619B69002203F080
:10296C0004030393039BFDF703FE4FF400530493FE
:10297C0001230593022304A9204606930793FDF730
:10298C008BFC08B010BD00BF0010024000100140CD
:10299C00282270B594B00DEB0200002100F034FB3E
:1029AC00142210250DEB0200002100F02DFB2A460D
:1029BC00002101A800F028FB4FF4803301240B9375
:1029CC00022612934FF480130AA813930A940E94C0
:1029DC001196FEF7DDF90F234FF480620593002367
:1029EC00214605A80793089209930696FEF70EFC5C
:1029FC004FF4800301A801950493FEF757FD14B022
:102A0C0070BD000008B5FDF79BFBFFF7C1FFFFF79A
:102A1C0081FF00F0BDF80A4C00224FF40051204613
:102A2C00FDF7A6FD0A20FDF7AFFB204601224FF46F
:102A3C000051FDF79DFD4FF47A70FDF7A5FBEBE718
:102A4C00001001400268034B9A4201D1FDF78ABB8A
:102A5C00704700BF002C0140704770470E4B82B08E
:102A6C009A6942F001029A619A6902F0010200929D
:102A7C00009ADA6942F08052DA61DB69074A03F0A6
:102A8C0080530193019B536823F0E06343F0007380
:102A9C00536002B0704700BF0010024000000140BC
:102AAC0010B5014688B000221920FDF79DFB1920B6
:102ABC00FDF7DCFB144B01A99A6903A842F40062F0
:102ACC009A619B69114C03F400630293029BFEF71D
:102ADC00BDFCFEF7ABFC0E4B236040F2E733E3602A
:102AEC000C4BB0FBF3F000230138606020462361EF
:102AFC00A360FEF77DFE20B92046FEF775FD08B0F9
:102B0C0010BD0120FBE700BF00100240BC030020F9
:102B1C00002C014040420F007047FEE7FEE7FEE745
:102B2C00FEE7704770477047704700000148FDF79B
:102B3C0053BE00BFF00D00200148FEF77FBD00BF63
:102B4C00BC0300200F4B1A6842F001021A6059684E
:102B5C000D4A0A405A601A6822F0847222F48032BC
:102B6C001A601A6822F480221A605A6822F4FE0253
:102B7C005A604FF41F029A604FF00062034B9A6048
:102B8C00704700BF001002400000FFF800ED00E0AD
:102B9C0008B500220E490F48FFF7ABFB08B1FFF751
:102BAC005BFF0D490B48FFF7B9FB08B1FFF754FF6A
:102BBC000A490848FFF775FB08B1FFF74DFF0548B8
:102BCC00FFF7B3FB18B1BDE80840FFF745BF08BDE0
:102BDC0028010020FC030020040000201801002024
:102BEC00002070470020704710B5054C0146204668
:102BFC00FFF766FB2046FFF769FB002010BD00BF06
:102C0C00FC03002010B5064C002206492046FFF7B5
:102C1C004FFB05492046FFF753FB002010BD00BFBA
:102C2C00FC030020080A00202006002007B50D4BED
:102C3C0002689A4212D103F5DA33DA69142042F4AD
:102C4C000002DA610022DB69114603F400030193F0
:102C5C00019BFDF7C9FA1420FDF708FB03B05DF8E2
:102C6C0004FB00BF005C004000F22C41D0F85C0477
:102C7C00FFF772BB00EB4113D3F83C22D0F85C0495
:102C8C00FFF797BB00EB4113DA6BD0F85C04FFF74E
:102C9C00C2BBD0F85C04FFF73EBC836810B5022BB6
:102CAC00044601D0FFF7D8FED4F85C040121FFF7ED
:102CBC0020FCD4F85C04BDE81040FFF7FBBB00001F
:102CCC0010B50446D0F85C04FFF716FCA36923B1D9
:102CDC00024A136943F00603136110BD00ED00E0D6
:102CEC00D0F85C04FFF711BC0223082210B51C4974
:102CFC0004461C4880E80E000023C0F85C44C4F86D
:102D0C0020028361C3610362FDF74CFC08B1FFF73D
:102D1C00A3FE002218231146D4F82002FEF720F857
:102D2C00582300228021D4F82002FEF719F8C02382
:102D3C0000228121D4F82002FEF712F84FF4887398
:102D4C0000220121D4F82002FEF70AF84FF4807318
:102D5C0000228221D4F82002FEF702F8002010BDD8
:102D6C00005C0040F00D002008B5D0F82002FDF703
:102D7C008FFC03289ABF024B185C022008BD00BFD1
:102D8C00BB31000810B51C46D0F820021346224671
:102D9C00FDF7A9FC03289ABF014B185C022010BD5B
:102DAC00BB31000808B5D0F82002FDF7BFFC0328A2
:102DBC009ABF024B185C022008BD00BFBB31000853
:102DCC0008B5D0F82002FDF77FFF03289ABF024B0D
:102DDC00185C022008BD00BFBB31000808B5D0F854
:102DEC002002FDF79AFF03289ABF024B185C0220C1
:102DFC0008BD00BFBB3100080A06D0F8203245BF21
:102E0C0001F07F0103EB411303EB411393F82A000C
:102E1C0058BF93F82A02704708B5D0F82002FDF786
:102E2C004EFC03289ABF024B185C022008BD00BF61
:102E3C00BB31000808B5D0F82002FDF7B7FC032819
:102E4C009ABF024B185C022008BD00BFBB310008C2
:102E5C0008B5D0F82002FDF78AFC03289ABF024B74
:102E6C00185C022008BD00BFBB31000808B5D0F8C3
:102E7C002002FDF794FC08BD004870479801002023
:102E8C0070477047122301480B80704744010020A3
:102E9C00042301480B80704758010020002330B5F3
:102EAC001D46DCB2A24200D830BD040F092C94BFE1
:102EBC003034373401F8134001EB430400016570E2
:102ECC000133EEE71A2310B50B80094B1868083351
:102EDC001B68C0180AD0074B08221C680649FFF76C
:102EEC00DDFF042205492046FFF7D8FF044810BD3A
:102EFC00E8F7FF1FECF7FF1F5E0100206E010020BA
:102F0C005C01002010B5044C0A4604482146FFF72A
:102F1C00A2FC204610BD00BF50120020D831000882
:102F2C0010B5044C0A4604482146FFF794FC204691
:102F3C0010BD00BF50120020EB31000810B5044C3E
:102F4C000A4604482146FFF786FC204610BD00BF08
:102F5C0050120020BF31000810B5044C0A4604483A
:102F6C002146FFF778FC204610BD00BF5012002010
:102F7C00CA310008002103E00B4B5B58435004316D
:102F8C000A480B4B42189A42F6D30A4A02E0002335
:102F9C0042F8043B084B9A42F9D3FFF7D3FD00F0FB
:102FAC000FF8FFF72FFD70470C32000800000020CF
:102FBC00780100207801002050140020FEE700006A
:102FCC0070B500250C4E0D4CA41BA410A54209D1C4
:102FDC0000F022F800250A4E0A4CA41BA410A542AE
:102FEC0005D170BD56F8253098470135EEE756F8F7
:102FFC00253098470135F2E7043200080432000806
:10300C00043200080832000803460244934200D1FF
:10301C00704703F8011BF9E7F8B500BFF8BC08BC12
:10302C009E467047F8B500BFF8BC08BC9E4670477A
:10303C0002030405060708090A0B0C0D0E0F1010ED
:10304C002E2E5C447269766572735C53544D333228
:10305C00463178785F48414C5F4472697665725CA2
:10306C005372635C73746D3332663178785F686168
:10307C006C5F636F727465782E63002E2E5C4472E5
:10308C0069766572735C53544D3332463178785F90
:10309C0048414C5F4472697665725C5372635C7331
:1030AC00746D3332663178785F68616C5F67706914
:1030BC006F2E63002E2E5C447269766572735C53BE
:1030CC00544D3332463178785F48414C5F447269D5
:1030DC007665725C5372635C73746D3332663178EF
:1030EC00785F68616C5F7063642E63002E2E5C44A5
:1030FC007269766572735C53544D3332463178780D
:10310C005F48414C5F4472697665725C5372635CD4
:10311C0073746D3332663178785F68616C5F72639B
:10312C00632E63002E2E5C447269766572735C5359
:10313C00544D3332463178785F48414C5F44726964
:10314C007665725C5372635C73746D33326631787E
:10315C00785F68616C5F7263635F65782E63002EC5
:10316C002E5C447269766572735C53544D333246EF
:10317C003178785F48414C5F4472697665725C5374
:10318C0072635C73746D3332663178785F68616C2E
:10319C005F74696D2E6300000000000000000001E8
:1031AC0002030406070809000000000102030400E2
:1031BC0002010243444320436F6E66696700434437
:1031CC004320496E746572666163650053544D69A2
:1031DC0063726F656C656374726F6E6963730053B1
:1031EC00544D3332205669727475616C20436F6D87
:0831FC00506F72740000000026
:04320400310100088C
:043208000D010008AC
:10320C000100000023220008E921000881210008A8
:10321C0000000000F9200008E720000851210008F8
:10322C000000000000000000000000002D2100083C
:10323C00212100083921000845210008090243001A
:10324C00020100C032090400000102020100052441
:10325C0000100105240100010424020205240600CB
:10326C00010705820308001009040100020A00008E
:10327C000007050102400000070581024000000024
:10328C0009024300020100C03209040000010202DD
:10329C000100052400100105240100010424020290
:1032AC00052406000107058203080010090401002B
:1032BC00020A000000070501020002000705810256
:1032CC00000200000A06000200000040010000009D
:1032DC0009074300020104C0320904000001020284
:1032EC000100052400100105240100010424020240
:1032FC000524060001070582030800FF09040100EC
:10330C00020A0000000705010240000007058102C7
:10331C004000000000A24A04112C0008ED2B00080C
:10332C00F12B0008F52B0008912E00089D2E0008AB
:10333C00112F00082D2F0008D12E0008492F00084E
:10334C00652F00081201000202020040830440575E
:10335C000002010203010000040309041A03000027
:10336C000000000000000000000000000000000051
:08337C00000000000000000049
:0400000508002F813F
:00000001FF
