:020000040800F2
:1000000000500020D1110008651100086711000898
:10001000691100086B1100086D1100080000000054
:100020000000000000000000000000006F11000848
:10003000711100080000000073110008751100081C
:1000400019120008191200081912000819120008E4
:1000500019120008191200081912000819120008D4
:1000600019120008191200081912000819120008C4
:1000700019120008191200081912000819120008B4
:1000800019120008191200081912000819120008A4
:100090001912000819120008191200081912000894
:1000A0001912000879110008191200081912000825
:1000B0001912000819120008191200081912000874
:1000C0001912000819120008191200081912000864
:1000D0001912000819120008191200081912000854
:1000E0001912000819120008191200080000000077
:1000F0000000000000000000000000000000000000
:0C01000000000000000000005FF808F1A3
:10010C0010B5054C237833B9044B13B10448AFF345
:10011C0000800123237010BD0800002000000000A7
:10012C007412000808B5034B1BB103490348AFF325
:10013C00008008BD000000000C00002074120008B4
:10014C00074A08B51368032043F01003136000F04E
:10015C002DF8002000F0C4FF00F0A0FF002008BD27
:10016C0000200240034A044B11681B780B441360B7
:10017C00704700BF2400002000000020014B1868CD
:10018C00704700BF2400002038B50446FFF7F6FF87
:10019C000546631C1EBF044B1B78E418FFF7EEFFEB
:1001AC00401B8442FAD838BD00000020C31E042B2B
:1001BC0010B5044603D9A221094800F06DFF094A85
:1001CC002402D36804F4E06423F4E0631B041B0CE6
:1001DC0043F0BF6343F400331C43D46010BD00BF35
:1001EC009C12000800ED00E00F2A70B504460E4684
:1001FC00154603D9BA211A4800F04EFF0F2E03D929
:10020C00BB21174800F048FF164B0120D968C1F3F9
:10021C000221C1F107030A1D042B28BF0423062A5F
:10022C0094BF0021033900FA03F2013A88403240AE
:10023C0001388A400540002C42EA05024FEA0212BE
:10024C00AFBF04F16044084B04F00F04D2B2A5BF59
:10025C00D2B204F561441A5584F8002370BD00BF76
:10026C009C12000800ED00E014ED00E010B5041E37
:10027C0003DACE21064800F00FFF0123620904F0D7
:10028C001F0403FA04F4034B43F8224010BD00BFD3
:10029C009C12000800E100E02DE9F04FAA4A85B05D
:1002AC00904204468B46019213D002F58062904234
:1002BC000FD002F5806290420BD002F58062904222
:1002CC0007D002F58062904203D0CD219F4800F008
:1002DC00E3FEDBF8002091B211B1120C12041AB13A
:1002EC00CE219A4800F0D8FEDBF80420032A17D957
:1002FC00A2F11101012913D9954822F40011814270
:10030C000ED000F5801082420AD0A0F570208142F8
:10031C0006D090498A4203D0CF218C4800F0BCFE15
:10032C000025A846DFF844A28B4E0122DBF80070B2
:10033C0002FA08F909EA0707B94540F08F80019BDA
:10034C009C4211D085498C420ED0854B9C420BD0DF
:10035C0001F500618C4207D001F580618C4203D01D
:10036C00DD217A4800F098FEDBF80410122900F029
:10037C00D38000F28D80022900F0C18077D800294B
:10038C0000F09380012900F0AE80FF2F82BF08F1AE
:10039C00804EAEF1080E4FEA8E014FF00F0E9DBF4E
:1003AC00204622684FEA880162680EFA01FC22EAB4
:1003BC000C0205FA01F188BF201D11430160DBF826
:1003CC000400C3004AD5DAF8182028F0030142F0E3
:1003DC000102CAF81820DAF8182001F1804102F065
:1003EC000102039201F5803108F0030C019B039A82
:1003FC004FEA8C0C8A680EFA0CFE9C4222EA0E0E16
:10040C0000F09B80554A944200F09980544B9C42DA
:10041C0000F0978002F50062944214BF042203227C
:10042C0002FA0CF242EA0E028A603268C1034CBF37
:10043C003A43BA433260726883034CBF3A43BA43BF
:10044C007260B268C1024CBF3A43BA43B260F26800
:10045C0083024CBF174322EA0707F76008F1010833
:10046C00B8F1100F7FF461AF05B0BDE8F08F032930
:10047C005FD0112989D1DBF80C20013A022A03D96B
:10048C00EC21324800F008FEDBF80C5004357CE718
:10049C003448814209D01CD8A0F58010814204D088
:1004AC0000F5803081427FF470AFDBF80810022930
:1004BC0004D940F20711254800F0EEFDDBF80810D6
:1004CC00C9B301290CBFC4F81090C4F814900825C6
:1004DC005BE725488142E8D000F580308142E4D0CA
:1004EC00A0F58010DEE7DBF80C20013A022A03D9D4
:1004FC00E521164800F0D0FDDBF80C5045E7DBF8A1
:10050C000C20013A022A03D9F321104800F0C4FD53
:10051C00DBF80C50083538E7DBF80C20013A022ADE
:10052C0003D9FA21094800F0B7FDDBF80C500C3563
:10053C002BE7002529E7042527E7002270E7012295
:10054C006EE702226CE700BF00080140D7120008DA
:10055C00000011100000221000040140000C0140AA
:10056C00001001400000211000003110001002406A
:10057C0070B5054616460C4621B940F2E311084801
:10058C0000F08AFD012E06D94FF4F271044800F0F8
:10059C0083FD2C6170BD002EFBD12404F9E700BF54
:1005AC00D71200082DE9F341044620B94FF4B87175
:1005BC00A54800F071FD236833B11A0704D140F24D
:1005CC007111A14800F068FD2368DB0718D423687B
:1005DC009F0772D42368190700F1B98023685A0762
:1005EC0000F1EB80E369022B04D940F2B921964863
:1005FC0000F052FDE269002A40F05E81002020E00C
:10060C00636833F4803207D0B3F5A02F04D040F2E6
:10061C0077118D4800F040FD8C4D6B6803F00C0396
:10062C00042B07D06B6803F00C03082B0CD16B6800
:10063C00DE0309D52B689D03C9D56368002BC6D191
:10064C00012002B0BDE8F0816368B3F5803F10D1A2
:10065C002B6843F480332B60FFF790FD06462B6824
:10066C009803B4D4FFF78AFD801B6428F7D90320C4
:10067C00E7E79BB92B6823F480332B602B6823F4BA
:10068C0080232B60FFF77AFD06462B6899039ED5D5
:10069C00FFF774FD801B6428F7D9E8E7B3F5A02FAA
:1006AC002B6803D143F480232B60D1E723F48033F0
:1006BC002B602B6823F48023CDE72369012B04D90D
:1006CC0040F2AB11604800F0E7FC63691F2B04D9C2
:1006DC004FF4D6715C4800F0DFFC5C4D6B6813F096
:1006EC000C0F07D06B6803F00C03082B10D16B6850
:1006FC00DA030DD42B689B0702D52369012B9FD1FC
:10070C002B68626923F0F80343EAC2032B6061E7AC
:10071C0022694F4B6AB101221A60FFF72FFD064682
:10072C002B689F07ECD4FFF729FD801B0228F7D913
:10073C009DE71A60FFF722FD06462B6898077FF5A8
:10074C0049AFFFF71BFD801B0228F6D98FE7A36981
:10075C00012B04D94FF4F6713B4800F09DFCA269C3
:10076C003A4D3C4BDAB101221A60FFF707FD064601
:10077C006B6A9B070DD54FF4FA52374B1B68B3FBD2
:10078C00F2F3019300BF019B5A1E0192002BF9D189
:10079C0024E7FFF7F3FC801B0228E9D967E71A600E
:1007AC00FFF7ECFC06466B6A9F077FF517AFFFF768
:1007BC00E5FC801B0228F6D959E7E368012B06D922
:1007CC00052B04D040F21B211F4800F065FC1F4D87
:1007DC00EB69D80024D40127EB6943F08053EB611B
:1007EC00EB6903F080530093009B1C4E3368D905D2
:1007FC0018D5E368012B33D12B6A43F001032B622C
:10080C00FFF7BCFC41F2883680462B6A9B074CD51F
:10081C00002F3FF4E7AEEB6923F08053EB61E1E688
:10082C000027E2E7336843F480733360FFF7A6FCDC
:10083C0080463368DA05DCD4FFF7A0FCA0EB080097
:10084C006428F6D913E700BF10130008001002400B
:10085C00000042428004424204000020007000402C
:10086C00ABB92B6A41F2883823F001032B622B6A57
:10087C0023F004032B62FFF781FC06462B6A9807D2
:10088C00C6D5FFF77BFC801B4045F7D9EFE6052B5F
:10089C002B6A03D143F004032B62ADE723F0010371
:1008AC002B622B6A23F00403A9E7FFF767FCA0EB8C
:1008BC000800B042A9D9DAE6384D6B6803F00C0396
:1008CC00082B3FF4BDAE022A354E57D1236A33F4C0
:1008DC00803304D040F2C221324800F0DDFB636A61
:1008EC0033F4402223F4802110D0B2F5801F0DD0B8
:1008FC00B2F5001F0AD0B1F5401F07D0B3F5601F49
:10090C0004D040F2C321274800F0C6FB002333601B
:10091C00FFF734FC07462B68990129D4236AB3F5F9
:10092C00803F0ED1A36833F4003304D040F2D921B8
:10093C001C4800F0B1FB6B68A26823F4003313432E
:10094C006B60236A616A6A680B4322F47412134366
:10095C006B6001233360FFF711FC04462B689A018E
:10096C003FF54CAEFFF70AFC001B0228F6D97EE6D9
:10097C00FFF704FCC01B0228CDD978E600233360B6
:10098C00FFF7FCFB04462B689B017FF537AEFFF7A6
:10099C00F5FB001B0228F6D969E600BF00100240E7
:1009AC00600042421013000830B5194B87B002ACFE
:1009BC0003F11005224618685968083303C2AB428C
:1009CC001446F7D101238DF80430022311498DF818
:1009DC0005304B6803F00C02082A17D1C3F383428D
:1009EC0006A80244DB0312F8102C0CD54B680A48FD
:1009FC00C3F34043504306AA134413F8143CB0FB12
:100A0C00F3F007B030BD05485043FAE70248F8E769
:100A1C008C1200080010024000127A0000093D0000
:100A2C002DE9F0410E46044620B940F22E317F48A4
:100A3C0000F032FB23681D0704D140F22F317B48B4
:100A4C0000F02AFB022E04D94FF44C71774800F0C9
:100A5C0023FB774A136803F007039E423DD82368B3
:100A6C00980747D42368DA0770D4714A136803F0E7
:100A7C0007039E42C0F0B58023686E4D13F0040F3F
:100A8C0040F0BB8023681B0717D5236933F48062C1
:100A9C000CD023F40072B2F5A06F07D0B3F5C06F81
:100AAC0004D04FF46E71614800F0F6FA6B6822695D
:100ABC0023F4605343EAC2036B60FFF775FF6B6866
:100ACC005D4AC3F30313D35CD8405C4B1860002021
:100ADC0000F006FB0020BDE8F081136823F007034B
:100AEC0033431360136803F007039E42B7D0012011
:100AFC00BDE8F0814F4D13F0040F1EBF6A6842F43D
:100B0C00E0626A60190742BF6B6843F460536B6024
:100B1C00A36833F0800212D023F02002902A0ED06A
:100B2C0023F04002A02A0AD023F01002C02A06D0DB
:100B3C00F02B04D040F256313C4800F0ADFA6B6813
:100B4C00A26823F0F00313436B608BE76368022BFE
:100B5C0004D940F25D31354800F09EFA6268354D9B
:100B6C00012A2B681DD113F4003FC0D06B6841F2F1
:100B7C00883823F0030313436B60FFF7FFFA6368B5
:100B8C000746012B15D16B6803F00C03042B3FF4C3
:100B9C006CAFFFF7F3FAC01B4045F4D90320BDE856
:100BAC00F081022A02D113F0007FDEE713F0020F6E
:100BBC00DBE7022B10D16B6803F00C03082B3FF41E
:100BCC0054AFFFF7DBFAC01B4045F4D9E6E7FFF75B
:100BDC00D5FAC01B4045E1D86B6813F00C0FF6D169
:100BEC0043E7136823F0070333431360136803F0E0
:100BFC0007039E427FF47BAF3EE7E36833F48062E9
:100C0C000CD023F40072B2F5A06F07D0B3F5C06F0F
:100C1C0004D040F2B131054800F03EFA6B68E2684E
:100C2C0023F4E06313436B602CE700BF1013000840
:100C3C000020024000100240801300080400002035
:100C4C00044B054A5B68C3F3C223D35C034A1068A8
:100C5C00D840704700100240901300080400002098
:100C6C0038B50D46044620B94FF4A661114800F082
:100C7C0013FA25B940F231510E4800F00DFA0F234A
:100C8C0023600D4B5A6802F0030262605A6802F04E
:100C9C00F002A2605A6802F4E062E2605B68DB0872
:100CAC0003F4E0632361054B1B6803F007032B601F
:100CBC0038BD00BF10130008001002400020024095
:100CCC00704700000368104A10B5934204460FD0D9
:100CDC00B3F1804F0CD0A2F59432934208D002F5B8
:100CEC008062934204D040F26111084800F0D4F9BC
:100CFC0023680020DA6842F00102DA601A6842F0D8
:100D0C0001021A6010BD00BF002C014048130008FE
:100D1C007047704770477047036810B51A690446EE
:100D2C0091070ED5DA6892070BD56FF002021A61A3
:100D3C0001229B6902779B0777D0FFF7EAFF00231C
:100D4C00237723681A69500710D5DA6851070DD537
:100D5C006FF004021A6102229B69227713F4407F20
:100D6C00204668D0FFF7D5FF0023237723681A6944
:100D7C0012070FD5DA6810070CD56FF008021A614C
:100D8C000422DB692277990720465AD0FFF7C1FF6E
:100D9C000023237723681A69D20610D5DA68D006A7
:100DAC000DD56FF010021A610822DB69227713F45B
:100DBC00407F20464BD0FFF7ACFF002323772368FE
:100DCC001A69D10708D5DA68D20705D56FF0010288
:100DDC0020461A6100F056F923681A69100608D5E6
:100DEC00DA68110605D56FF0800220461A6100F012
:100DFC00C2F823681A69520608D5DA68500605D578
:100E0C006FF0400220461A61FFF785FF23681A69CC
:100E1C00910622D5DA6892061FD56FF02002204683
:100E2C00BDE810401A6100F0A5B8FFF771FF20462D
:100E3C00FFF770FF83E7FFF76BFF2046FFF76AFFB2
:100E4C0092E7FFF765FF2046FFF764FFA0E7FFF787
:100E5C005FFF2046FFF75EFFAFE710BD1A4A03683D
:100E6C0090420AD0B0F1804F07D0A2F59432904254
:100E7C0003D002F58062904215D14A6823F07003CA
:100E8C001343114A90420AD0B0F1804F07D0A2F51B
:100E9C009432904203D002F58062904203D1CA682A
:100EAC0023F4407313434A6923F080031343036014
:100EBC008B68C3620B688362034B984204BF0B6957
:100ECC000363012343617047002C014010B50446B5
:100EDC00002849D00368254A93420ED0B3F1804FC5
:100EEC000BD0A2F59432934207D002F58062934264
:100EFC0003D0D9211E4800F0CFF8A36833F01002BC
:100F0C0009D023F04002202A05D0402B03D0DA214F
:100F1C00174800F0C1F8236933F4807206D0B3F59A
:100F2C00007F03D0DB21124800F0B6F8A36933F040
:100F3C00800303D0DC210E4800F0AEF894F83D306D
:100F4C0003F0FF0223B984F83C202046FFF7B8FEDB
:100F5C000223206884F83D30211DFFF77FFF012319
:100F6C00002084F83D3010BD012010BD002C014044
:100F7C004813000870477047102210B588B00DEB6D
:100F8C000200002100F068F9184B194C9A692046B0
:100F9C0042F010029A619A694FF4005102F010026B
:100FAC000192019A9A6942F020029A619A6902F0C0
:100FBC0020020292029A9A6942F004029A619B6999
:100FCC00002203F004030393039BFFF7D1FA4FF4C1
:100FDC000053049301230593022304A9204606938E
:100FEC000793FFF759F908B010BD00BF001002407D
:100FFC000010014010B590B02822002106A800F086
:10100C002BF90021142201A800F026F94FF48033AB
:10101C000122022407930E934FF4E01306A80692C4
:10102C000A920F930D94FFF7BDFA0F234FF48062D1
:10103C0001930023214601A8029403930492059383
:10104C00FFF7EEFC10B010BD08B5FFF779F8FFF70D
:10105C00D1FFFFF791FF0A4C00224FF400512046BC
:10106C00FFF786FA0A20FFF78FF8204601224FF48B
:10107C000051FFF77DFA4FF47A70FFF785F8EBE734
:10108C00001001400268034B9A4201D1FFF76AB885
:10109C00704700BF002C0140704700000E4B82B01F
:1010AC009A6942F001029A619A6902F00102009277
:1010BC00009ADA6942F08052DA61DB69074A03F080
:1010CC0080530193019B536823F0E06343F000735A
:1010DC00536002B0704700BF001002400000014096
:1010EC0010B5014688B000221920FFF77DF81920B1
:1010FC00FFF7BCF8144B01A99A6903A842F40062EB
:10110C009A619B69114C03F400630293029BFFF7F5
:10111C00A7FDFFF795FD0E4B236040F2E733E3602C
:10112C000C4BB0FBF3F000230138606020462361C8
:10113C00A360FFF7CBFE20B92046FFF7C3FD08B034
:10114C0010BD0120FBE700BF00100240280000206A
:10115C00002C014040420F007047FEE7FEE7FEE71F
:10116C00FEE7704770477047704700000148FFF773
:10117C00D3BD00BF280000200F4B1A6842F00102BB
:10118C001A6059680D4A0A405A601A6822F0847233
:10119C0022F480321A601A6822F480221A605A688B
:1011AC0022F4FE025A604FF41F029A604FF0006264
:1011BC00034B9A60704700BF001002400000FFF81C
:1011CC0000ED00E0002103E00B4B5B584350043171
:1011DC000A480B4B42189A42F6D30A4A02E0002303
:1011EC0042F8043B084B9A42F9D3FFF7C5FF00F0D5
:1011FC000FF8FFF729FF7047A0130008000000202C
:10120C00080000200800002068000020FEE7000015
:10121C0070B500250C4E0D4CA41BA410A54209D191
:10122C0000F022F800250A4E0A4CA41BA410A5427B
:10123C0005D170BD56F8253098470135EEE756F8C4
:10124C00253098470135F2E79813000898130008E9
:10125C00981300089C13000803460244934200D1E3
:10126C00704703F8011BF9E7F8B500BFF8BC08BCE0
:10127C009E467047F8B500BFF8BC08BC9E46704748
:10128C0002030405060708090A0B0C0D0E0F1010BB
:10129C002E2E5C447269766572735C53544D3332F6
:1012AC00463178785F48414C5F4472697665725C70
:1012BC005372635C73746D3332663178785F686136
:1012CC006C5F636F727465782E63002E2E5C4472B3
:1012DC0069766572735C53544D3332463178785F5E
:1012EC0048414C5F4472697665725C5372635C73FF
:1012FC00746D3332663178785F68616C5F677069E2
:10130C006F2E63002E2E5C447269766572735C538B
:10131C00544D3332463178785F48414C5F447269A2
:10132C007665725C5372635C73746D3332663178BC
:10133C00785F68616C5F7263632E63002E2E5C4471
:10134C007269766572735C53544D333246317878DA
:10135C005F48414C5F4472697665725C5372635CA2
:10136C0073746D3332663178785F68616C5F746961
:10137C006D2E630000000000000000000102030459
:0C138C000607080900000000010203042D
:041398003101000817
:04139C000D01000837
:0813A0000100000000A24A0454
:04000005080011D10D
:00000001FF
